:020000022000DC
:1060000000000120DDA8020005A90200496E02007F
:1060100009A902000BA902000DA90200000000005E
:106020000000000000000000000000000FA90200B6
:1060300011A902000000000013A9020015A9020026
:106040005983020017A90200018802002D8E020068
:106050004D8D020017A9020075860200F988020022
:10606000FD8D02000D8E020017A9020017A9020083
:1060700017A9020017A9020017A9020017A9020018
:1060800017A90200E968020017A9020017A9020077
:106090008569020017A90200559E020017A9020097
:1060A00017A9020017A9020017A9020017A90200E8
:1060B000B188020017A902000000000000000000E3
:1060C00017A90200C1880200D188020017A90200A6
:1060D00017A9020017A9020017A90200000000007A
:1060E00000000000000000000000000000000000B0
:1060F00000000000000000000000000000000000A0
:10610000000000000000000000000000000000008F
:10611000000000000000000000000000000000007F
:10612000000000000000000000000000000000006F
:10613000000000000000000000000000000000005F
:10614000000000000000000000000000000000004F
:10615000000000000000000000000000000000003F
:10616000000000000000000000000000000000002F
:10617000000000000000000000000000000000001F
:10618000000000000000000000000000000000000F
:1061900000000000000000000000000000000000FF
:1061A00000000000000000000000000000000000EF
:1061B00000000000000000000000000000000000DF
:1061C00000000000000000000000000000000000CF
:1061D00000000000000000000000000000000000BF
:1061E00000000000000000000000000000000000AF
:1061F000000000000000000000000000000000009F
:1062000010B5054C237833B9044B13B10448AFF3F0
:1062100000800123237010BDE4A2002000000000D4
:106220008422030008B5034B1BB103490348AFF3B5
:10623000008008BD00000000E8A2002084220300C6
:10624000154B002B08BF134B9D46A3F5803A002148
:106250008B460F461348144A121A04F05DFC0F4B8C
:10626000002B00D098470E4B002B00D09847002001
:10627000002104000D000D48002802D00C4806F053
:1062800021FD04F059FB2000290000F06DF804F016
:1062900043FB00BF000008000000012000000000D8
:1062A00000000000E4A2002020AF0020C5CC0200C6
:1062B00095DE02007047000007B50DF1060102F0FF
:1062C000ADFC18B1044A5E2100F0BBFABDF906002E
:1062D00003B05DF804FB00BFD409030030B5104BD8
:1062E000104D0222914203F8012B28BF114691B0B4
:1062F0000A460C460146184604F074FB01343C2261
:10630000002101A8AC8004F007FC0623002101A8AD
:106310008DF807300A9504F031F911B030BD00BF97
:1063200000A30020A898002007B50B4A0B4813785B
:10633000013313700A4B19780A4B8DF804101B882F
:106340008DF8053004F032FC022101A8FFF7C6FFEA
:1063500003B05DF804FB00BF38A30020A0090300D0
:1063600064AE00206CAE0020F0B5404B002087B03A
:10637000C3E903004FF4004101F032FB18B13C4A7D
:10638000A92100F05EFA01F049FA3A4B3A4918683F
:106390000290022302A88DF8083002F05FFB18B1CA
:1063A000334AB02100F04DFA0020022303A9CDE9C1
:1063B00003008DF814008DF810308DF8133002F0C2
:1063C000ADFB18B12A4ABB2100F03BFA032303A915
:1063D00001208DF8133002F0A1FB18B1244AC0212E
:1063E00000F02FFA2548264E04F0A2F8254B002491
:1063F00018600125022101A8ADF804408DF8055070
:10640000FFF76CFF00F010FC29461F4A1F48204D83
:1064100000F04EFC224640F28F211E481E4C00F038
:1064200059FC44F0010404F077F80020FFF744FF22
:1064300040F6E447C0EB002090FBF7F00028B8BF1F
:10644000404228800120FFF737FFC0EB002090FB7F
:10645000F7F2002AB8BF5242B5F900100F48328057
:1064600004F0A4FB4FF47A40A047DCE7000700509B
:10647000D409030098090300B5620200B498002013
:106480006CAE002068AE0020296302009C09030066
:1064900064AE002018A30020C0090300C609030051
:1064A00038B5054D044645F001054FF47A40A8473C
:1064B000013CFAD138BD00BFA00A03007FB50546F4
:1064C0000E46144672B601F0BDFC01F0F1FA002848
:1064D000FBD13E4804F0CCFB41F201039D4264D065
:1064E00006D8012D12D03146394804F05FFB10E088
:1064F00044F201039D425AD044F202039D42F2D17C
:1065000022886168334804F051FB02E0324804F00D
:106510004DFB01F0BBFF08B901F084FF0023ADF88B
:106520000C308DF80E3003A9012319208DF80D30A1
:1065300001F0B6FF03A9182001F0B2FF03A917204C
:1065400001F0AEFF192002F067F8182002F064F89D
:10655000172002F061F84FF4FA70FFF7A1FF19203D
:1065600002F02CF8182002F029F8172002F026F883
:106570003220FFF795FF192002F04EF8182002F0A4
:106580004BF8172002F048F84FF4FA70FFF788FF35
:10659000192002F013F8182002F010F8172002F06A
:1065A0000DF8FA20FFF77CFFCCE70C48AFE7A568B1
:1065B000284601F06FFE2368019600930246636847
:1065C0000748294604F0F2FAA3E700BFE1090300F7
:1065D0007D0A0300380A0300F9090300160A0300C4
:1065E000530A030007B501F051FF08B901F01AFF83
:1065F0000023ADF804308DF8063001A901231920DD
:106600008DF8053001F04CFF01A9182001F048FF7A
:1066100001A9172001F044FF192001F0FDFF182007
:1066200001F0FAFF172001F0F7FF4FF4FA70FFF7BF
:1066300037FF192001F0C2FF182001F0BFFF17201B
:1066400001F0BCFF3220FFF72BFF192001F0E4FF1F
:10665000182001F0E1FF172001F0DEFF4FF4FA707F
:10666000FFF71EFF192001F0A9FF182001F0A6FF77
:10667000172001F0A3FFFA20FFF712FFCCE7036910
:10668000C1688B429DBF8268D21802F1FF3203F1CC
:10669000FF3394BF501A581A70472DE9F041D0E9E2
:1066A00002670446F61B4068964288461546384401
:1066B00005D904F097F93D44E560BDE8F081324624
:1066C000AD1B04F08FF92A4608EB0601606804F060
:1066D00089F9F1E72DE9F843C5680646894617466A
:1066E0004FF000083469B3687068A54228BFE41809
:1066F000013C621B5C1BBC4228BF3C46944228BF45
:10670000144649462844224604F06CF9B3682544EF
:10671000AB4208BF00253F1BA044A144F560E1D176
:106720004046BDE8F883000010B5114C114AA26143
:106730000223C4E90433104BE361A2644FF40073F5
:106740000E4A2362E264002310220D49A362E01D79
:106750006362E362A3656365E365226504F058FB49
:106760000849204604F054FB2023A37110BD00BF4C
:1067700070AE0020A60A030049A3002039A3002020
:10678000AF0A0300B30A0300F8B5184C182300FB46
:10679000033503FB00402544C46A012C0F4616460E
:1067A00011D003D3022C1BD000240AE02846FFF7A7
:1067B00066FF864205D8324639462846FFF76DFF08
:1067C00034462046F8BD2846FFF759FF8642344636
:1067D00028BF0446224639462846FFF75EFFF0E709
:1067E0002846BDE8F840FFF775BF00BF70AE002037
:1067F00073B50D4B1B7804460D4616460BB9FFF7D3
:1068000093FF02A8002300F8013D00F0C5FA3246CC
:1068100029462046FFF7B8FF04469DF8070000F020
:10682000EBFA204602B070BD70AE0020FFF77CBFCF
:1068300010B511461C461A460020FFF7D9FF204626
:1068400010BD00B583B002900091019244F20100A6
:1068500071466A46FFF732FE03B000BD094A53781D
:1068600091780133DBB2994208BF00231178994235
:106870001FBF03705078182303FB002014BF04309F
:10688000002070474CA5002073B5054602A80024DF
:1068900000F8014D0E4600F07FFA0DF10600FFF7FB
:1068A000DDFF90B106700A4B9DF8062045605A70D6
:1068B0009DF8070000F0A0FA24B9064B4FF48012AF
:1068C000C3F80021204602B070BD0424F0E700BFE9
:1068D0004CA5002000E100E0024B4FF43C6043F087
:1068E00001031847C00A0300F8B51F4B1F491B6876
:1068F0000025C1F84051C1F84451C1F84851C1F8D0
:106900004C51C1F80051C1F804514BB3D1F80445C2
:1069100017490968641A24F07F442F461A68A24276
:1069200009D8A41A15441A7CDE691AB11F74D3E978
:1069300005209047AEB90F4B0F4A197813788B4258
:1069400005D10133DBB2022B08BF0023137012788C
:106950000A4B43F822500A4B4FF48012C3F800212F
:10696000F8BD3346DAE700BF6CA6002000100140F6
:1069700068A6002064A6002065A600205CA6002072
:1069800000E100E02DE9F74F9C4A9D491378097812
:106990009C4D99423CD00133DBB2022B08BF00234F
:1069A000137099491278994B0F6853F822003B18DD
:1069B00023F07F4300220B602B6816461446944652
:1069C00013B942B12B6006E0196881420ED902B1B9
:1069D0002B60091A19604FF001082B68DFF834A208
:1069E00000930027BEB9DFF834B260E0401A0C44CF
:1069F000D968C3F800C0D3F81CE031B13A1922F0CD
:106A00007F42C3E90121DE611E4601227346D7E7BA
:106A10000026B046E1E73446F6697B4A63681268AF
:106A2000DFF8FCC1A068991A21F07F41614500F2AE
:106A3000A58001442160012222742A680023C4E950
:106A40000133E361002A40F0A2802C60CAE75A1C9F
:106A50009BF80210D2B291428BF8002004BF0022B2
:106A60008BF80020182202FB03B32A6819799C686E
:106A7000022974D003297ED0012918D1217CB1B913
:106A8000DA6862601A69A2605A699B69A361604B07
:106A9000E2601B78002BC0D06160BEE79C4200F032
:106AA00090809946DB69002BF8D1002323749BF872
:106AB00000309BF801209A42C9D12B682FB9009A67
:106AC000934202D1B8F1000F43D0002B41D0D3F84C
:106AD00000A0504D4C4BD5F804751C68DFF844817C
:106AE0003E1B98F8003026F07F4603369BB94FF4E2
:106AF0008033C5F84433C5F80433474B4FF40032B4
:106B00004FF00109C3F880211A60C5F80090FFF723
:106B1000E3FE88F80090B2452CBF5444A41924F039
:106B20007F44C5F84045D5F80435DB1B23F07F438F
:106B3000E41B033324F07F44A3420AD9D5F804357B
:106B4000C5F84035FFF7C8FE334B4FF40032C3F8A9
:106B500000212F4B00221A7003B0BDE8F08F1346BE
:106B60009146A0E71174D2690123002AFAD1002BC3
:106B70009DD02A609BE700231946F6E7D31A23F03D
:106B80007F43834234BFC31A0023236053E7216845
:106B90001368994213D8591A1160E26155E7091A2E
:106BA000D8691A4638B1034618688842F7D3401AA4
:106BB0001860184613462160E061DC6112E7134655
:106BC000F2E74C450DD1D3692B6053B90E480192C1
:106BD0000121CAF8081003600D4B1970FFF77CFE05
:106BE000019AE1692368C9F81C1011B108680344CF
:106BF0000B602B689A4218BF012756E764A6002055
:106C000065A600206CA6002068A600205CA60020D7
:106C100058A600200010014000E100E04CA5002033
:106C2000FEFF7F0059A60020F8B5194E194D1A4FE6
:106C30004FF40033C6F8803001244FF48033C5F898
:106C40004833C5F808336C60FFF746FEAC6000249B
:106C50003C60FFF741FE114B1C70114B0B221C8056
:106C60009A70104B1C60104B1C70104B4FF480122C
:106C70001C70E023C6F8802186F814333260C5F812
:106C8000084586F81133D5F804353B602046F8BD39
:106C900000E100E00010014068A6002059A6002095
:106CA0004CA500206CA6002064A6002065A600204C
:106CB000074B9B784BB132B128B10368187C20B9DF
:106CC00059745A617047072070470820704700BF09
:106CD0004CA500202DE9F7431D4FBB7805460E4615
:106CE00090469BB390B304292ED9436973B3437C78
:106CF00002A80024012B00F8014D0CBF8946A146D3
:106D000000F04AF80DF10600FFF7A8FDD0B101230D
:106D10000370104B4560D3F80435C0E90498C0E90E
:106D200002369DF806307B709DF8070000F064F88D
:106D300024B9094B4FF48012C3F80021204603B058
:106D4000BDE8F0830424EFE70724F7E70824F5E71C
:106D50004CA500200010014000E100E0064A9278B6
:106D60003AB130B1426922B1002202740221FFF728
:106D70008BBD0820704700BF4CA50020EFF30583B2
:106D8000C3F308032BB9EFF31480C04300F00100F4
:106D9000704701207047000070B50446FFF7EEFF12
:106DA000012803D01049432003F01CF9EFF31086AB
:106DB00072B60E4A9068012398B993600C4B0D4D42
:106DC000D3F8801029401160C3F88050D3F88410A4
:106DD00051604FF0FF32C3F88420207006B962B6CC
:106DE00070BD2370FAE700BFC60A0300E8AE0020BA
:106DF00000E100E0FC06FFBD10B50446FFF7BEFF52
:106E0000012803D00949512003F0ECF8084B9A6897
:106E10005AB154B9EFF3108172B6064A186810607F
:106E2000586850609C6001B962B610BDC60A030084
:106E3000E8AE002000E100E0024B1B6800219868EA
:106E400003F01EBFDC9800201EF0040F1CBFEFF300
:106E500009800AE0EFF308800549064A884201D814
:106E6000904202D88D464FF00000034B18470000B7
:106E70000000012000E000207D6E02002DE9F347B4
:106E8000044600F0DFFF00F013FE0028FBD1334D75
:106E9000334E2888A2693349B76A000440F00100E4
:106EA00000F080FF2888E36801930004A368009342
:106EB0002D49D4E9002340F0010000F093FF288819
:106EC000E36900930004D4E9042340F0010027495A
:106ED00000F07CFFF36A980706D52888244900044F
:106EE00040F0010000F05AFFDFF89490DFF894A022
:106EF00000264FF0010808FA06F33B4209D059F882
:106F0000262032B128880004514640F0010000F0EC
:106F100049FF01361A2EEED1390608D52888104BC4
:106F200014495A6B000440F0010000F03BFF3A04A2
:106F300008D528880A4B10499A6B000440F00100DC
:106F400000F030FF0D4B1B68DB0700D500BE20466C
:106F5000FFF748FB02B0BDE8F08700BFCCA20020DD
:106F600000ED00E01A0B03002F0B0300640B03007D
:106F70008C0B0300DB0B0300FB0B0300F0ED00E0C8
:106F8000180C0300D00B030050E8002F0B4640E81C
:106F9000003C9CF0000FF7D11046704750E8003FCE
:106FA00043EA010240E8002C9CF0000FF6D11046A5
:106FB000704750E8002F02EA010340E8003C9CF0D3
:106FC000000FF6D11046704750E8003F03EB010276
:106FD00040E8002C9CF0000FF6D11046704750E8B6
:106FE000003FA3EB010240E8002C9CF0000FF6D11B
:106FF000104670470121FFF7D1BF0021FFF7D9BF2D
:1070000010B50446002834D003681BB91A49FF2084
:1070100002F0E8FF636823B917494FF4807002F06B
:10702000E1FFA36823B9144940F2011002F0DAFF2E
:10703000E36823B910494FF4817002F0D3FFA38AAB
:1070400023B90D4940F2031002F0CCFFD4E901232B
:1070500021689B1ADBB20A60013BDBB2FF2B22687E
:1070600002D10020107110BD1168481C10600B7017
:10707000F2E70E20F7E700BF4011030037B50546E1
:1070800020B913494FF4927002F0ACFF02A800241B
:1070900000F8014DFFF780FE2A686B68116899427D
:1070A0000ED9481E106011F8014CEB68A98A01FB4B
:1070B0000434AB6811791B1ADBB2994238BF1371E3
:1070C0009DF80700FFF798FE204603B030BD00BFD3
:1070D0004011030037B50C46054620B9104940F26F
:1070E000471002F07FFF24B90D494FF4A47002F05D
:1070F00079FF02A8002300F8013DFFF74DFE2A6842
:107100001368591C1160EA68A41AAA8AB4FBF2F445
:107110001C709DF80700FFF76FFE03B030BD00BF85
:107120004011030038B5084C04F108030546002857
:1071300018BF1C4623682BB11A6822605B6828467A
:107140009847F7E738BD00BF78A6002020B9054B67
:1071500001225A70FFF7E6BF012802D1014A907060
:10716000F8E7704770A6002020B9034B01225A703F
:10717000FFF7D8BF704700BF70A6002038B50B4C92
:10718000237883B90A486360A3602361E36001F058
:1071900095F8054602F044FE08B901F0A5F8012370
:1071A0002370284638BD8525FBE700BF70A6002068
:1071B0004D71020013B5154C237823B914494FF4CF
:1071C000847002F00FFFE36823B9114940F20910FF
:1071D00002F008FF02A8002300F8013DFFF7DCFDE4
:1071E000E368013BE360E36853B902F019FE18B1AC
:1071F0000749792002F0F6FE01F096F80023A3700B
:107200009DF80700FFF7F8FD02B010BD70A6002042
:107210008F110300012813B509D003D303281BD015
:1072200002B010BD134B0122C3F88020F8E702A87A
:107230000023114C00F8013DFFF7AEFD23780BB998
:10724000FFF79CFFE3689DF807000133E36001232B
:10725000A370FFF7D1FDE3E7074B1B7823B907497C
:1072600040F2432002F0BEFE01F03EF8FFF7A2FF1D
:10727000D6E700BF00E100E070A600208F110300F8
:1072800010B5044618B90649312002F0ABFEA268D9
:107290002AB163692168206998470023A36010BD63
:1072A000E31103000EB433B5059D044618B9124925
:1072B000422002F097FE63691BB90F49432002F098
:1072C00091FE23681BB90C49442002F08BFE6368D1
:1072D0001BB90949452002F085FE3DB102AA06AB63
:1072E00042F8043D2946204600F06EF802B0BDE8A1
:1072F000304003B0704700BFE3110300826830B430
:107300000468551C8560A154D0E901329A4202D329
:1073100030BCFFF7B5BF30BC704700002DE9F84F17
:107320009946DDE90A431746824688460A46012601
:10733000BA420FD24E4538BF4E4613F0010B01D171
:1073400064B900240125B9F1010F1AD909F1FF39F7
:107350007D43F8E7B2FBF7F20136E9E79B070ED56C
:10736000B9F1000F0CBF30252025A642EAD2013C1E
:1073700029465046FFF7C2FF002CF6D1E1E7202551
:10738000F3E7B8FBF5F39F42E2D9DFF83890B8FB9A
:10739000F5F3504619F8031005FB1388FFF7AEFF0D
:1073A000B5FBF7F5002DF2D1BBF1000F02D00CB107
:1073B000A64201D3BDE8F88F20215046013CFFF7DB
:1073C0009DFFF4E7281203002DE9F74F0E46904683
:1073D000054620B9AC494FF49F7002F003FE6B697B
:1073E00023B9A9494FF4A07002F0FCFD2B6823B922
:1073F000A54940F2411002F0F5FD6B6823B9A2499E
:107400004FF4A17002F0EEFD002E00F0398116F865
:10741000011B002958D0252940F0D180002702E027
:1074200047F001071646324612F8013B2D2BF7D0E4
:10743000302B04D02B2B05D147F00407F2E747F09F
:107440000207EFE700242A2B06F101021BD1D8F82E
:107450000030191D1B68C8F800101C44164633780C
:107460002E2B1CD101364FF0000A314611F8012BAA
:10747000A2F13000092814D80A2303FB0A23A3F140
:10748000300A0E46F1E712F8013CA3F13001092958
:10749000E5D80A2101FB0434303C1646D3E74FF00F
:1074A000000A324612F8011B01F0FB00682816465C
:1074B000F8D0692916D054D8582970D00ED825296B
:1074C0007DD03378002BA2D12B7B002B00F0D8800D
:1074D000284603B0BDE8F04FFFF7D2BE632968D05D
:1074E0006429EED1D8F80020D2F80090111D89EA65
:1074F000E972C8F80010A2EBE9724FF0010B092AFB
:1075000061DCD34538BFD3462CB1B9F1000F01DBA4
:10751000790700D5013CBA0702D5BAF1000F04D0B3
:10752000FB0702D4002C54D10024B9F1000F58DA23
:10753000C9F100092D212846FFF7E0FE07F00302FC
:10754000022A05D1BAF1000F02D1002C4DD100243E
:10755000CDE9004753460A2249462846FFF7DEFE9A
:10756000AFE7732954D016D87029AAD1D8F80030C3
:107570001A1DC8F80020302128461C68FFF7BEFEFF
:1075800078212846FFF7BAFE00220823CDE9003211
:1075900021461022E1E775292FD0782991D1D8F81A
:1075A00000100A1DC8F80020CDE9004753461022FC
:1075B0002CE0D8F800301A1D1978C8F800202846A9
:1075C000FFF79CFE7DE70A230BF1010B92FBF3F220
:1075D00095E7A345A9D220212846013CFFF78EFE5E
:1075E000A0E77807AAD52B21A5E7A345B0D2302183
:1075F0002846013CFFF782FEA7E7D8F80010CDE946
:1076000000470A1DC8F8002053460A220968A4E76B
:10761000D8F800301A1DC8F80020F907D3F80090F8
:1076200012D54F46A7EB090B17F8011B41B95C4572
:107630007FF647AF20212846013CFFF75FFEF6E7C3
:107640002846FFF75BFEEDE7B9F1000F16D048467C
:1076500003F056FC0746BC420AD809F1FF3919F875
:10766000011F00293FF42DAF2846FFF747FEF6E73C
:1076700020212846013CFFF741FEECE74F46EAE7B0
:1076800003B0BDE8F08F00BF381203002DE9F041D0
:1076900008B10368C3B90E4E0E4B14229B1B002485
:1076A000B3FBF2F3374602FB03F5A54201D10020FC
:1076B00008E03B5930190BB91434F6E7DB699847F9
:1076C0000028F9D0BDE8F081DB69BDE8F04118473A
:1076D000E4A20020E4A200207047000007B5044B9C
:1076E0000093044A402300F032F803B05DF804FB35
:1076F000F976020085A600202DE9F8438946144654
:10770000B2B10F4B0F4E0325002743F0010822466C
:1077100009EB07010020FFF737F80744241A48B99E
:1077200033782BB14FF47A40C047013D02D1357018
:10773000BDE8F88301233370002CE8D1F8E700BFDF
:10774000A012030084A600207047FFF76FB8F0B5C1
:1077500095B01C46164608460D4600F026FD1A9BBD
:107760000D93CDE9086400242346082205A9284684
:107770000A948DF82C400C9400F031FD079B029385
:10778000BDF81830ADF80C30BDF81A30ADF80E3039
:107790009DF814308DF8114003F00302012A1DD129
:1077A000BDF81440059EC3F3C203C4F383148DF8DF
:1077B0001030A20008230EA9284600F010FDC6F3E1
:1077C000952608AB0093224602AB0EA9304600F086
:1077D000A7FB284600F0EDFC15B0F0BD022AF8D159
:1077E000BDF81640C3F3C203A4098DF81030082772
:1077F000082C264628BF08263B4632460EA92846B6
:1078000000F0EDFCA41B08AB02AA31460EA83744D9
:1078100000F0EAFB002CEBD1DBE7000008B5FFF736
:1078200094FF0421064800F0EBFA002803DA05492A
:10783000412002F0D7FB024B01225A7208BD00BF63
:10784000C4980020B412030008B5037813F0030FA6
:1078500003F0040202D012B9104608BDDAB103F0F9
:107860000303012B07D0022B0ED00E494FF4A47056
:1078700002F0B8FB06E00A6800880232C0F3831009
:1078800002440A600120E8E70B684288023303EBF8
:1078900092130B60F6E70B684288013303EB9213F7
:1078A0000288F4E71F1303002DE9F04F89B0064664
:1078B000871C08A8484C009200230D4600F8113D93
:1078C000FFF76AFA23682B60D4E901231344226886
:1078D00001339B1A04F21C4804F5836B04F214492B
:1078E000BB421AD3009A0023002A6DD0012262F312
:1078F000010343F0040366F389132168A2689DF82D
:107900000F000A4003320F4444F822302760FFF78B
:1079100073FA012009B0BDE8F08F01214046FFF75E
:1079200053FB5846FFF766FB0DF1200A4846FFF768
:1079300061FB60684AF8100DA5682840033004EB2D
:1079400080005146FFF780FF02460498002AF4D1D8
:1079500005EA000304EB8303811CDB680593013017
:10796000054004EB850503F00303012B0491ED684A
:1079700023D0022B08D0194901924FF4C27002F0B3
:1079800031FB019A154607E0BDF816309B09033319
:107990002D0C01EB930304934846FFF72EFB08B12F
:1079A000049B636029464046FFF70EFBD4E90123A0
:1079B0001344226801339B1A92E7BDF81430C3F3D5
:1079C00083132D0C0B44E6E7022262F3010343F01C
:1079D000040366F39F5390E798A700201F1303004A
:1079E00008B50F4B0F48FF229A600022C3F81824F5
:1079F000C3E90022C3F81424012283F8202400F0F4
:107A00008DFB38B9084A094B09499B1ADB08024625
:107A10009A4200D108BD21F822200132F8E700BFC8
:107A200098A700203023030098220300302303008E
:107A300098A2002030B50B4C79B10B4A0B49121BB0
:107A4000D20800239A4201D1002030BD01EB83050A
:107A50006D88854202D00133F4E7034654F83300C1
:107A6000F3E700BF982203003023030098A2002010
:107A7000094B013903EBC000032909D8DFE801F005
:107A80000A02040604207047007970474079704765
:107A9000002070470220704798220300034BD3E96F
:107AA0000030C31A58425841704700BF98A70020C1
:107AB0002DE9F04387B0FFF7F1FF0746002840F0BB
:107AC000F5807B4DC5F81804BFF34F8F6868AC682C
:107AD0000DF1180848F8100D2040033005EB800028
:107AE0004146FFF7B1FE029B064600285FD104EA3B
:107AF0000302991C013305EB8202234005EB83034B
:107B0000D268DB68049302F00303022B0392029114
:107B100062D1BDF80E3067484FEA9318B8F1500FA4
:107B2000C14628BF4FF0500969F38F1309F10801CE
:107B3000ADF80E3000F00AFB0746002800F0A480E4
:107B400000F033FB334603A90822384600F040FB1F
:107B5000029924EA01060136B600B14535D95FFA2B
:107B600089F97EB3F6B2A9EB0609214003315FFA29
:107B700089F4B146504E05EB810108234A46384648
:107B800000F026FB36B109F108032246314638469B
:107B900000F01EFB029B08F1030803EB980302931D
:107BA000D5F81834002B4AD1D5F8104458E02A688B
:107BB0009A4204D86A60384607B0BDE8F08304EA08
:107BC00003008AE73C493446D7E7214003310823C4
:107BD0004A4605EB8101DAE7012B55D1BDF80C309F
:107BE0003448C3F38311062928BF062161F38913A2
:107BF00002318900ADF80C3000F0A8FA07460028E1
:107C000042D000F0D2FA3346082203A9384600F0E9
:107C1000DFFABDF80C20C2F38312B31C96424FEA80
:107C20008303BDD202994A1C21400331029205EB25
:107C300081010422384600F0CBFA0136E9E73846E4
:107C400000F0B7FAFFF72AFF80F00100C7B2B2E7F1
:107C5000637A23B1236839461B68204698476468D5
:107C6000002CF5D1384600F0A4FA06A800F8114D12
:107C7000FFF792F8D5F818340BB9029B6B609DF8AA
:107C80000700FFF7B9F8DDE7D5F8104444B90B4B0E
:107C90000B491888000440F0020000F07FF8D1E79B
:107CA000236820469B6898476468EFE7002782E7CF
:107CB00098A7002030230300A4A70020C0A2002022
:107CC000821303002DE9F74F2F4C80460F46914653
:107CD00001A9012218469B46D4F808A0FFF7E4FD4D
:107CE00000283DD0019D0026A91C5E4506EB01023F
:107CF00040D100212548FFF747F980F3100B244BB2
:107D0000244A4FEA18499B1AB9EBD30F04D32249EE
:107D100040F2A91002F066F96B1C03EA0A0304EBB7
:107D2000830349EA0B42DA6005EA0A0303330121BF
:107D300014F8232068F3C50204F8232034F8232024
:107D400066F3891224F8232054F8232067F39F2236
:107D500044F8232061F301026FF3820204F8232028
:107D600094F820341BB1FFF7A3FE0028FBD103B029
:107D7000BDE8F08F0AEA020204EB820259F82630CD
:107D8000D3600136B1E700BF98A70020B4AB002054
:107D900030230300982203001F13030000231A4618
:107DA000FFF790BF13B502AC012344F8042D22461F
:107DB000FFF788FF02B010BD07B5CDE9002302230D
:107DC0006A46FFF77FFF03B05DF804FB1FB5CDE9FE
:107DD0000123069B039301AA0323FFF773FF05B05A
:107DE0005DF804FB1FB5CDE90023069B0293079BBA
:107DF00003936A460423FFF765FF05B05DF804FBB3
:107E00000F4A30B5D2F810440023214641B903721D
:107E1000D2F810444CB9C2F810044160184630BD85
:107E20000D7A9D4205D04968F0E762684260606063
:107E3000F4E701330A2BE8D14FF0FF33EEE700BF40
:107E400098A70020084A38B50123D2F8104482F8D8
:107E500020341D4604B938BD2368657220465B682E
:107E600098476468F6E700BF98A70020037A052BBF
:107E700010B50C460FD0437A23B1084A0849204672
:107E8000FFF710FA07492046FFF70CFA2046BDE835
:107E90001040FFF7F5B9002AF8D0F3E7DF1303002D
:107EA000E413030004140300C38873B504460D46AD
:107EB00033B1144A00921449144A2846FFF7F2F9E4
:107EC000217A05291CD0637A4BB1A088FFF7D0FD39
:107ED0000F4B104953F820202846FFF7E3F9227A88
:107EE0000D4BA08853F822600021FFF7A3FD0B493A
:107EF00003463246284602B0BDE87040FFF7D2B9CB
:107F000002B070BDDF130300EF130300E71303009B
:107F1000AC130300E413030014140300071403005C
:107F20002DE9F04385B01F460C9D002306460C4604
:107F3000904695F80C902B7329463846FFF7B4FF0E
:107F4000B8F1060F09D8DFE808F00412181F28332B
:107F5000400031462846FFF7A5F900222946384659
:107F6000FFF784FF85F80C9005B0BDE8F083226828
:107F700031462846FFF796F9EFE7D4E9002331466A
:107F80002846FFF78FF9E8E7A36800933146D4E964
:107F900000232846FFF786F9DFE7E3680193A3682B
:107FA00000933146D4E900232846FFF77BF9D4E754
:107FB00023690293E3680193A36800933146D4E9EF
:107FC00000232846FFF76EF9C7E763690393236927
:107FD0000293E3680193A36800933146D4E9002338
:107FE0002846FFF75FF9B8E708292DE9F84F8046E2
:107FF0000E4617461C4638D8002593F80C901D7382
:1080000019461046FFF750FFDFF880A0DFF880B078
:10801000AE422CD918F8052059462046FFF742F900
:108020000135082DF4D11749DFF868B02046FFF775
:1080300039F90025AE421FD918F805A002F0AEFCB0
:1080400050445946437813F0970F14BF52462E22DE
:108050002046FFF727F90135082DEBD101222146F3
:108060003846FFF703FF84F80C90BDE8F88F5146BF
:108070002046FFF717F9D3E703492046FFF712F927
:10808000E9E700BFDA130300D8130300D613030097
:10809000D0130300DC1303002DE9F84FB0F806A05D
:1080A0009DF82890174603321C1D13444279B4FBF7
:1080B000FAF55344B3FBFAF3DBB29A42064688461C
:1080C0000AFB154403D21449BA2001F08BFF3DB9D5
:1080D000AAEB040BBB4528BFBB4627B9BDE8F88F08
:1080E0003668013DF3E7043408EB050034445A4692
:1080F000B9F1000F0DD02146A7EB0B0702F072FC7F
:10810000BA455D443668D3464FF0000428BFBB46ED
:10811000E3E701462046EFE773140300FEF770BF64
:10812000F8B546790146721E0546002393422D6834
:1081300003D30024A64202D8F8BD0133F6E70F6846
:108140002846FEF7C7FF01343946F3E72DE9F84327
:10815000868ACD1C0746FEF791FF043E354404464F
:10816000B5FBF6F5F0B14FF48073EDB28380C680B5
:10817000013D076081464FF00008A84512D23846FD
:10818000FEF77CFF064648B163790133637108F15D
:108190000108C9F8000007608146EEE72046FFF7B6
:1081A000BFFF34462046BDE8F88301210430FEF7C6
:1081B0000BBF10B5012104460430FEF710FF10F08C
:1081C000FF0F04D12046BDE81040FFF7A9BF10BD46
:1081D00013B500240094FFF75FFF02B010BD13B584
:1081E00001240094FFF758FF02B010BD38B50D46CA
:1081F000044618B90949502001F0F4FE1DB9074999
:10820000512001F0EFFE2B686A686360934208BF5B
:108210000023256008BF636038BD00BFD814030089
:1082200010B5044618B90B49632001F0DBFE236842
:108230001BB90849642001F0D5FE636843B1226888
:10824000916852680B449342636004BF00236360EB
:1082500010BD00BFD81403000D4930B5A1F59472CC
:108260000225914201D800200EE08B1ADB1093FB0F
:10827000F5F302EBC30452F83330834205D802D23F
:1082800004F10802EDE7606830BD2146E9E700BF70
:108290007C16030008B5FFF7DFFF024B002808BF7C
:1082A000184608BD4015030000F18040002382B04D
:1082B000036003680193019B02B0704710B5044648
:1082C00018B90749A22001F08DFE064B187920B994
:1082D00001221C601A71587110BD8520FCE700BF97
:1082E000361A0300BCAB002008B50C4B1B791BB938
:1082F0000B49BB2001F076FE0A4B1A68D20706D460
:10830000E02283F800230122C3F880211A604FF095
:1083100080430122C3F8182508BD00BFBCAB002074
:10832000361A030000E100E008B5084B1B791BB9C1
:108330000749F22001F056FE064B01221A604FF069
:108340008042D2F81834DB03FBD408BDBCAB00205C
:10835000361A03000C000040124B1B6810B573B1B5
:108360004FF48070FFF7A0FF4FF080430122C3F865
:1083700008230D4B587910B95A711B6898470B4B5D
:108380001B6873B14FF48270FFF78EFF4FF080438C
:108390000222C3F80823044B01201B68BDE81040EB
:1083A000184710BD00010040BCAB00200401004094
:1083B00000F1804000F5C040002382B003600368F4
:1083C0000193019B02B07047054B4FF0FF32072825
:1083D00043F8202084BF1B1883F84820704700BF53
:1083E000C4AB0020024940F2C71001F0FBBD00BF42
:1083F000881A03001F2838B504460D4601D9FFF737
:10840000F1FFA00000F1A040D0F8003723F4403382
:10841000C0F80037D0F8003743EA0543C0F800370A
:1084200038BD0000164991F8583010B52BBBFF201D
:10843000CA180133202B82F83000F9D10024E0B2B1
:108440000134FFF7C1FF0C2CF9D10E4B0022E020C4
:108450004A6583F806034020C3F8800118604FF492
:10846000BE70FFF7A5FF084B4FF00040C3F80403B0
:10847000012381F85830104610BD0820FCE700BFEA
:10848000C4AB002000E100E000600040034B93F823
:108490005800003018BF0120704700BFC4AB002057
:1084A0001F2870B504460D4604D9414940F22D10ED
:1084B00001F098FD3F4E96F85830012B04D03C490E
:1084C0004FF4977001F08EFD25B9394940F22F1015
:1084D00001F088FD331993F93020013265D1AA7873
:1084E000002A54D0002356F8231001314FEA8302AA
:1084F00048D1311902F1804202F5C04281F8303092
:108500000021D2F8100546F823102B78697820F462
:1085100098101B04090520F4F85001F4801103F4AD
:108520004033C2F810050B432102D2F8100501F4C4
:10853000F8510B430343C2F810356B78012B4FF011
:10854000010528D11F2C01D9FFF74CFF4FF0A043A4
:10855000A540C3F808551F2C01D9FFF743FF04F5C8
:10856000E0724FF0A043032143F82210E2081249C1
:10857000012304F0070403FA04F48B5C1C438C54BD
:10858000002003E00133082BADD1042070BDFE2292
:1085900083F83020D1E71F2C01D9FFF723FF4FF0DC
:1085A000A043A540C3F80C55D5E70820EEE700BF6F
:1085B000CA1A0300C4AB002018AC00201F2838B52D
:1085C000054604D9124940F2791001F00BFD114C17
:1085D000621992F93020013204D10D494FF4BD7077
:1085E00001F000FD631993F83030072B04D80849D7
:1085F00040F27B1001F0F6FC1F2D01D9FFF7F2FECF
:10860000012303FA05F54FF0A043C3F8085538BD20
:10861000CA1A0300C4AB00201F2838B5054604D988
:10862000124940F2831001F0DDFC114C621992F9FD
:108630003020013204D10D494FF4C27001F0D2FC58
:10864000631993F83030072B04D8084940F285109D
:1086500001F0C8FC1F2D01D9FFF7C4FE012303FA66
:1086600005F54FF0A043C3F80C5538BDCA1A0300F6
:10867000C4AB00202DE9F04F87B000245B4A5C4E6C
:108680005C4D039401211368A2F5C040012B80B218
:1086900006D1D6F804330B4202D0FFF789FE0C4313
:1086A0000432AA424FEA4101EDD1534B1B68012B22
:1086B0000AD14FF4BE70FFF77BFE4FF0A04344F0A9
:1086C0000044D3F81035039314F0FF0F1AD04B4F2A
:1086D00000250126344210D0AB0003F1804303F59E
:1086E000C043D3F81005D3F8101557F82530C0F360
:1086F0000420C1F3014103B198470135082D4FEA29
:108700004606E7D1002C6EDA00224FF0FF33CDE9A8
:1087100004233A4F4FF0000A56464FF0A04907EBAA
:108720000A0393F95040631C46D0E4B2012224F0BE
:10873000C00504F0070B02FA0BFBEB0806AAD118E0
:1087400011F8042C12EA0B0F36D07A19A40992F909
:10875000302057F82280B8F1000F0AD1032C2BD11A
:108760000DF1100C1CF8030040EA0B000CF803009C
:1087700001E0032CF4D01F2D03D90191FFF732FE45
:10878000019911F80C1C05F5E07311EA0B0F59F86B
:108790002330C3F3014320D0022B0DD1032C05D18C
:1087A00021462846FFF726FE0136F6B2B8F1000F43
:1087B00002D021462846C0470AF1010ABAF1040F47
:1087C000ADD186B14FF0A043039AD3F810359A4249
:1087D00009D00393049B05939CE7032BECD1032C56
:1087E000E4D10221DDE707B0BDE8F08F0061004071
:1087F00000600040206100407C610040C4AB00206C
:1088000010B5054C22681AB90449512001F0EAFB61
:108810002368BDE81040184720AC00201E1B030051
:108820000023435082B043580193019B02B070472C
:10883000D0F8103170B505460C4653B14FF488712D
:10884000FFF7EEFF63795A0703D523680BB10120C8
:108850009847D5F814315BB14FF48A712846FFF779
:10886000DFFF63791B0703D523680BB1022098470C
:10887000D5F81C315BB128464FF48E71FFF7D0FF5D
:10888000607910F0100002D1236803B19847D5F841
:10889000043163B14FF482712846FFF7C1FF012311
:1088A000237123681BB10320BDE87040184770BDD9
:1088B00001490248FFF7BCBF28AC002000C00140BE
:1088C00001490248FFF7B4BF30AC0020001002405D
:1088D00001490248FFF7ACBF38AC0020002002403D
:1088E00000F1804000F5E040002382B0036003689F
:1088F0000193019B02B07047F0B5514B514C1B687E
:1089000085B0DBB14FF4827094F82E20FFF7E8FFBA
:1089100012B194F82F30A3B1636802932389ADF8A4
:108920000C30E36800218DF80410002B44D123742F
:10893000236801A89847002384F82F3094F82E303C
:1089400003B3414B1B68EBB14FF48070FFF7C8FFD6
:1089500094F82D20638B91B28B4238D95B1A218910
:108960009BB26383CB1A616801EB4301374BC3F8B9
:108970002C16C3F830264FF48270FFF7B1FF344B4A
:1089800001221A60334B1B685BB14FF48870FFF70C
:10899000A7FF002304A82374022300F80C3D2368DA
:1089A00098472D4B1B6813B34FF48A70FFF798FF5D
:1089B0000023237405B0F0BD208B608363602081A9
:1089C000E160002AB4D1214B01221A60B0E7D2D174
:1089D000E368012184F82F103BB1002161831B491A
:1089E000C1F82C36C1F83026C5E76383C3E7666952
:1089F0004FF000470125002EDCD0B6FA86F227FAA8
:108A000002F34632920026EA030602F1804303F5A0
:108A1000E0431B68002BEED01046FFF761FFA2F584
:108A20008C72D30882F00402C2F380028DF8083001
:108A30008DF804508DF80920236801A89847DAE7DB
:108A40000471004040AC0020007100400070004004
:108A500004700040107100401471004070B50E4663
:108A6000054618B92849D62001F0BCFA1EB9264996
:108A7000D72001F0B7FA254C94F82C30002B41D1C7
:108A8000234A29782660C2F8F0156978C2F8F415EF
:108A9000E97884F82E102374012184F82D30636165
:108AA00084F82F306FF0004384F82C104FF482705C
:108AB000C2F80833FFF714FF4FF48070FFF710FF80
:108AC000AD78AB1E012B06D96B1F022B03D91149C0
:108AD0006B2001F087FA104B6D01EDB283F807535C
:108AE0008022C3F8802194F82E101A60084B0222CD
:108AF000C3F80423012209B1C3F80423C3F80025F5
:108B0000002070BD0820FCE7741B030040AC00206F
:108B100000700040C01B030000E100E070B53C4E57
:108B200096F82C3004460D4623B93A494FF491701B
:108B300001F058FA072C04D9364940F2231001F00D
:108B400051FA354BD3F8F43513F0FF0F07D096F8F0
:108B50002D3023B12F494FF4937001F043FAEB7994
:108B6000013B082B04D92B494FF4947001F03AFAD9
:108B70002B7A092B04D9274940F2291001F032FA47
:108B8000337C002B42D104F10C0106EB41031B792D
:108B900023B996F82D30013386F82D306B78A878FC
:108BA000EA791B01000200F4E06003F030030343A4
:108BB000287800F003000343E878000300F48050B5
:108BC00003432879000400F4E0200343687900059A
:108BD00000F480100343A879000600F0807003437E
:108BE000200100F1804000F5E04006EB4106297AC3
:108BF00032717171C0F81835C0F81415C0F810251D
:108C0000C0F81415C0F81025002070BD1120FCE735
:108C100040AC0020741B03000070004070B5364C5F
:108C2000227C02F0FF03002A64D1344A0125032686
:108C30002574C2F80863C2F82C16C2F8305694F8AE
:108C40002D20AA420CD919461A0102F1804202F5E0
:108C5000E0420133082BC2F81415C2F81015F3D105
:108C600000F10C03000104EB430300F1804000F528
:108C7000E0401A795B79C0F81435C0F810251F4A16
:108C800001231360536042F2107302F5827211687F
:108C900031B9013BFBD11A4940F29B1001F0A2F916
:108CA0004FF48070FFF71CFE4FF48270FFF718FE40
:108CB00094F82D30012B11D90F490022130103F133
:108CC000804303F5E0430132087F4D7FC3F814551C
:108CD000082AC3F8100501F10201EFD194F82E2003
:108CE000064B2AB103220020C3F80423207470BD70
:108CF0000222F8E71120FAE740AC002000700040A3
:108D0000741B0300024940F2C71001F06BB900BFA9
:108D1000881A03001F2810B5044601D9FFF7F2FF97
:108D2000012303FA04F44FF0A043C3F80C4510BD2F
:108D30001F2810B5044601D9FFF7E4FF012303FA09
:108D400004F44FF0A043C3F8084510BD4FF0402392
:108D500013B5D3F818310BB3114B124C00221A6023
:108D60001B680193019B236823B90F4940F28E20B1
:108D700001F038F9E07FFF2803D0A37F5BB1FFF754
:108D8000C9FF002363772372D4E90031074802B09A
:108D9000BDE810401847FFF7CBFFF2E702B010BD67
:108DA0001841004070AC0020091C030078AC002082
:108DB0002DE9F743002406460F4600F5A0754FF451
:108DC0008038A14604F150002B68800080B26BB15E
:108DD000D6F8043308FA04F21A4207D0C5F8009016
:108DE0002B680193019BD7E9003198470134042C8B
:108DF00005F10405E6D103B0BDE8F083014902485E
:108E0000FFF7D6BF94AC0020008000400149024823
:108E1000FFF7CEBFA0AC00200090004000234350DD
:108E200082B043580193019B02B07047F0B5504C9B
:108E3000236887B023B94F4940F22D2001F0D2F8C2
:108E40004D4AD2F824311546A3B14FF49271104621
:108E5000FFF7E4FFD2F8043163B9A368C2F808331E
:108E60000223A360A368C2F8043301231362536191
:108E700007B0F0BDD5F80431002B49D03F4F3E4834
:108E80004FF48271FFF7CAFF0FCF01AE0FC63B68E8
:108E9000336094F82E307BB1237B012B0CBFD5F8C7
:108EA0003C25D5F84C250292022B334B0CBFD3F84E
:108EB0003C35D3F84C3503934FF4B0712E48FFF78F
:108EC000ADFF4FF4AE712C48FFF7A8FF94F8303097
:108ED00013B194F82E303BB1274B0022C3F8002287
:108EE000A260274AC3F80823234AD2F8C434C2F840
:108EF000C4349A0736D501238DF8003094F8303009
:108F00000BB984F82F30D4E9003168469847AFE7B1
:108F10004FF4A4711848FFF781FF237B83B9174FE3
:108F20000FCF01AE0FC63B68336094F83030002B92
:108F3000DAD1C5F80032A360114BC5F80833D3E786
:108F40004FF40073C5F8003240F20223A36003F12E
:108F5000CE73C5F80833A368C5F804330123AB60AA
:108F60002B6285E713F0040318BF0223C4E700BF98
:108F7000ACAC00205F1C030000300040B8AC002007
:108F800002029C016DDF704779DF70477DDF70471B
:108F900064DF70472DE9F74F0C9CBDF834B027888B
:108FA000002580468A4691462E46B8F80020B242F7
:108FB0000BDC35B12288013AD21B92B2FF2A39D894
:108FC000DA55002003B0BDE8F08FD8F8042052F83D
:108FD0002600019000220DF1030101A8FFF7D8FF40
:108FE0000028EFD19DF803204A4521D12288002D89
:108FF00014BF0020022002EB09010144594519DC8D
:109000003DB9013292B2228003F802A022880132D7
:10901000228022880DF103011A4401A8FFF7B8FF4E
:109020000028CFD121889DF803200A442280012501
:109030000136BAE70C20C5E72DE9F341089CBDF8DD
:1090400024501746CDE9004502220646FFF7A2FF4D
:1090500048B9102239463046CDE9084502B0BDE88E
:10906000F041FFF797BF02B0BDE8F0812DE9F04F66
:1090700000231688138090F82D3085B007460D46E2
:1090800014465BB3082E01D80C2005E102A8FFF7B7
:1090900079FF002840F0008113880822CA542388F1
:1090A00001339BB21B222380CA54238804AA0133B4
:1090B0009BB252F8070D23801944E85093888B80A7
:1090C00023889DF8082006339BB212F0FE0218BFD9
:1090D00001222380EA54238801332380BB78FBB12B
:1090E00023880433B342CFD802A8FFF74DFF0028EE
:1090F00040F0D28023880322EA54238801339BB2B4
:1091000019222380EA542388BDF8082001339BB23A
:10911000E9182380EA54120A4A7023880233238014
:10912000FA789AB12388D91CB142ADD80221E9540A
:10913000238801339BB201212380E95423880B4407
:109140009BB22380EA5423880B4423807A68AAB117
:109150002388D91CB14297D8022192F90020E95402
:10916000238801339BB20A212380E95423880133E9
:109170009BB22380EA542388013323803B89002B50
:109180007ED13B8A53B1CDE900462B46072203210D
:1091900007F11000FFF750FF00287DD13B8B53B142
:1091A000CDE900462B461522142107F11800FFF7E0
:1091B00043FF002870D13A6A002A70D1D7F8248082
:1091C000B8F1000F30D0B8F804302188981C8A1C00
:1091D0000244B2423FF658AFFE283FF655AF033384
:1091E0006B54238801339BB2FF222380EA542388E7
:1091F00001339BB22380B8F80020EA54E918120A20
:109200004A702088023080B22080B8F804205AB119
:10921000D8F8081000294CD0284401F0E3FB23883B
:10922000B8F804201344238097F82C30002B7BD10E
:10923000387888B33B88012B3BD021888A1CB24206
:109240003FF622AF012805D17B7802330B449E42C2
:10925000FFF41AAF023E761A04A9B6B221F8086DDF
:10926000A818FFF793FEB8B93B78022B40F09F8017
:10927000BDF80830B34240F2B680ADF808609FE018
:10928000CDE900462B460622022107F10800FFF730
:10929000D3FE00283FF475AF05B0BDE8F08FB4F8F9
:1092A00000C00CF10603B3423FF6EEAE118805296B
:1092B00001D80720F0E76FF4486E01EB0E039BB274
:1092C0004FF27D3E7345F4D95388052BF1D96FF4E5
:1092D0004860181880B27045EBD94FF6FF70814294
:1092E00003D0834201D09942E3D8052305F80C301E
:1092F000238801339BB212212380E9542388013350
:109300009BB223801188E954E818090A4170238828
:1093100002339BB223805288EA54E918120A4A7039
:1093200023880233238049E7BB6A002BC1D04FF06A
:1093300000094FF00C0A4FF0160B97F82C305FFA2B
:1093400089F293427FF674AFB96A0AFB02F201EB2D
:109350000208B8F80430981CFE283FF695AE208825
:1093600003332B54238801339BB2238005F803B0C9
:10937000238801339BB223808A5AEA54E918120ADF
:109380004A702088023080B22080B8F804205AB198
:10939000D8F8081000298CD0284401F023FB23883A
:1093A000B8F804201344238009F10109C5E7012B13
:1093B0007FF463AF7B789E42FFF45FAFADF8083077
:1093C0000821BDF80830FE2B3FF65EAE228801333F
:1093D000AB542288013292B22280A95422881344CD
:1093E0002380002058E70921EBE770B5C0B14AB1EE
:1093F00016880024B44203D305196D789D4208D025
:10940000A14201D800200BE0055D01352C44A4B237
:10941000F0E7A142F6D9A31C1380005D013880B2A9
:1094200070BD37B502AC002324F8023D1346224636
:109430000546FFF7DAFF10B1BDF80600284403B077
:1094400030BD72DF704773DF704738B501220446C4
:109450000D46B0F89810D0F89400FFF7E2FF00B185
:10946000057004F13C0204F1940104F15400BDE8DC
:109470003840FFF7E6BF80F830107047F8B5044673
:109480000F46002966D0002864D091F87A301BB1CD
:1094900091F89830002B5FD1D7F8A030042B5BD027
:1094A000D7F89C30042B57D007F178060FCE4FF039
:1094B000000C251D84F802C00FC50FCE0FC596E81D
:1094C000070085E8070084F830C0D7F8A43063634C
:1094D000D7F8A830A36304F194024FF6FF73C4F8E1
:1094E000AAC0A4F8A830C4F8A420C4F8ADC022785B
:1094F0000AB984F85430224604F155011F25C4F8F6
:109500009410384622F8985FFFF7B0FD08BB22465A
:1095100004F17401C4F89C1007F13C0022F8A05F2C
:10952000FFF7A4FDA8B9A269A4F848200123626945
:10953000206484F850006264014684F8513084F855
:109540003C3004F13C0204F15400FFF77AFF00B90B
:109550002370F8BD0E20FCE70720FAE7F8B507787E
:1095600004460D46002F00F00D81A1700020FEF78B
:109570008DF818B1012363700020F8BD04F1AA062C
:10958000C4F8AA00C6F80300E38813B1A378012B3E
:1095900004D0E3794BB1A378022B06D1636BA3B15E
:1095A000012284F8B12008209847334604F1B00125
:1095B00013F8012F12B99942FAD117466B1E032BEB
:1095C00053D8DFE803F0050B0F1284F8B130ECE755
:1095D000A3791BB194F8243003B95FB9E3790BB1D7
:1095E000002F44D1237A002B43D1637A002B0CBF88
:1095F00000250425636BA570002B3CD0033D012D95
:1096000039D86279002A36D094F8B220002A32D1B3
:1096100084F8B420012284F8B3200720984704F18D
:109620003C0518220021284601F076FAE36A94F8F6
:1096300024200121581E884288BF0B4684F83C1024
:1096400084F8513032B1884296BFA36A84F8521030
:1096500084F85230A178002384F8503004291BD8B4
:10966000DFE801F07A0D25385C000025C2E702250D
:10967000C0E70325BEE7002384F8B330CFE7C4F882
:10968000A430C4E910630223012284F83C30802313
:1096900084F83120A4F84830A378002B5FD1636BA5
:1096A000002B3FF469AF94F83100984764E7022338
:1096B00084F8313062B1072384F83C302369A4F880
:1096C00048300023C4F8A430E36826646364E3E709
:1096D0000323F1E763696364A369A4F8483012B116
:1096E000062384F83C306379B3B194F8B2309BB967
:1096F00094F8B43083B1022384F85030042120461A
:10970000FFF7A3FE0028C7D1052384F8313004F108
:109710009403C4F8A430BFE70323F6E7E369636466
:10972000236AA4F8483012B1062384F83C306379E8
:1097300083B194F8B2306BB994F8B43053B10223CA
:1097400084F8503004212046FFF77FFE0028A3D183
:109750000623DAE70423D8E784F831309CE72A4669
:10976000D4F8A41004F15400FFF76BFE00287FF436
:1097700004AF94F8301094F85400FFF764FE00280A
:109780008DD0FAE60820F8E60388112B10B50C46B8
:109790000AD0262B1FD0102B05D1C37B012B02D161
:1097A0008388A1F8A83010BD0022838881F8B220F8
:1097B000B1F8A8209A42F6D10B79002BF3D1012100
:1097C0002046FFF7CBFE0028EDD0A36B002BEAD09C
:1097D000BDE810401847037A013B012BE3D8897894
:1097E0000523013191FBF3F303EB8303C91AC9B2DB
:1097F000E6E70238012810B50C460DD84B785BB16E
:1098000000234B7020468978FFF7A8FE20B1A36B98
:1098100013B1BDE81040184710BD75DF704776DF03
:1098200070477ADF70477BDF70470000034B1A8870
:1098300082420CBF18460020704700BFFCAC0020DD
:10984000024B9B6903B11847704700BFE0AC002092
:1098500037B585B22846FFF7E9FF034670B1164CCD
:10986000017A227B91420BD200F10A012846FFF7D0
:10987000D4FFE8B1112801D0FFF7E2FF03B030BDFB
:10988000237C0022027243B13B212846FFF7C7FF29
:1098900030F0080301D0FFF7D3FF6369002BEDD050
:1098A00000228DF80420ADF8065001A89847E5E79E
:1098B0001A7A01321A72E1E7E0AC002013B50B46C8
:1098C000497A0F4C024669B9D4E901101C7A002C80
:1098D00018BF01465868FDF7FDF908B1FFF7B0FF62
:1098E00002B010BD002119726369002BF8D001216C
:1098F000ADF806008DF8041001A89847F0E700BF06
:10990000E0AC00208388B3F5FA7F28BF6FF4F972CA
:1099100030B528BF9C1805884A8838BF0024954276
:109920000CD84088904209D38A88A24206D303F219
:10993000F310904234BF0020012030BD0020FCE72E
:109940000388112B70B5014648D002D8102B1ED0C9
:1099500070BD122B52D0502BFAD12F4BC288DB890D
:109960009A42F5D1038A022BF2D186883046FFF75E
:109970005DFF05460028EBD001F1120000F08AF8E7
:1099800030BB6868FDF7EAF90028E1D009E0C37B45
:10999000012BDDD14FF6FF70FFF748FF054620B9D8
:1099A0000420BDE87040FFF74BBF1C4A8E8806803C
:1099B000002303721368C5F80A300A305368436005
:1099C0001031FFF79FFF144B6872DB89002BBFD16A
:1099D00029463046BDE87040FFF770BF8088FFF72A
:1099E00025FF04460028B3D04068FDF7B7F908B159
:1099F000FFF726FF4FF6FF732380A9E786883046DE
:109A0000FFF714FF05460028A2D008310A30FFF7FF
:109A100079FF6872DCE700BFE0AC002010AD0020E9
:109A2000F8B5064650B305460FCD154F3C460FC45A
:109A300095E8070084E807003068124B3B60B8B136
:109A4000FFF7EFFEC8B931680A681A604A685A60C1
:109A50000D480E4A4FF6FF7303800D4B40F8043F4C
:109A60000021FDF725F9002814BF0320002004E0A1
:109A70001846FFF7D8FE0028EAD0F8BD0E20FCE714
:109A8000E0AC002010AD0020FCAC0020519802009A
:109A900018AD0020007800F00100704790DF70479B
:109AA000A5DF7047B5DF7047F0B585B00023ADF88E
:109AB0000810ADF80A106A4602A9074603930093FE
:109AC000ADF80430FFF7EAFF064618B3134C2588BB
:109AD000FEF7E0FB2D0445F0010503463A46104928
:109AE0002846FEF769F9BDF80020BDF8023002B93A
:109AF00033B120880B49000440F00100FEF75CF907
:109B0000BDF8042032B120880749000440F001006C
:109B1000FEF748F9304605B0F0BD00BFD0A20020E6
:109B2000BA1C0300041D0300431D030088B14FF05D
:109B3000F7130360FB230371F723C380172303810B
:109B400041F6FB32002301618372C37282811846A1
:109B500070470E207047000037B5034680880C46DA
:109B6000A0B91A88232A00F0AD8011D8102A25D078
:109B7000112A53D0A37A4BB1E1880020FFF790FF60
:109B8000002840F0A5800123A072E37203B030BD2D
:109B90003A2A4DD0552A67D0242AEBD11A7A0B697C
:109BA0004A73002BE6D04DF67A21ADF80400ADF8EB
:109BB0000010ADF802008DF804207FE0DB7B0A790D
:109BC0000A73012B13D0022B14D0E18823898B4216
:109BD00005D20020FFF764FF70B90123E372217BF7
:109BE000637B8B42C6D20020FFF75EFFC2E70B8883
:109BF000E380EAE74B88FBE7112802D10123A37237
:109C0000EDE73B4B1D88FEF745FB2D0445F00105B4
:109C1000024638492846FEF7C5F8E0E7F723CB802F
:109C200017230B8141F6FB338872C8728B81A1E741
:109C30005B89CA88934228BF1346172B0A6938BF2D
:109C400017230B8162B1C97A51B140F67721ADF883
:109C50000010ADF80200ADF8043069462046904788
:109C60000023E372A37285E7DB88C988A072172BF3
:109C700038BF17238B4228BF0B462381FFF712FF03
:109C800058B11B4B1D88FEF705FB2D0445F001055F
:109C9000024619492846FEF785F8E27A002A7FF441
:109CA00069AF2369002B3FF465AF40F67721ADF82B
:109CB00002202289ADF80010ADF804206946204644
:109CC000984757E7197A237B994228BF19468BE7B3
:109CD00011283FF45BAF064B1C88FEF7DBFA240427
:109CE00044F00104024603492046FEF75BF84DE7C5
:109CF000D0A20020991D0300CA1D030010DF704789
:109D000013B5044609496846FEF770FA019808B988
:109D100002B010BDD0E900312046984718B168461E
:109D2000FEF77EFAF2E71120F2E700BF0C1E0300F7
:109D300013B5044607496846FEF758FA019B0BB96C
:109D400002B010BD2046D3E9002190476846FEF7D7
:109D500067FAF3E7241E03000C4A92F816335B09F6
:109D6000012B08D9042B06D0094B996849B94FF447
:109D7000800313607047074AA12142F20200FCF7FA
:109D800060BD1A6842F480021A60704700E100E08A
:109D9000E8AE0020301E0300F7B51B4F3C788CBBAB
:109DA0001A4E012520463570FFF7AAFF112826D04C
:109DB0002046FFF7BDFF164B1868019002A800F877
:109DC000054DFCF7E9FF134901A8FFF797FF04468B
:109DD000B0FA80F0400938709DF80300FDF70CF8E8
:109DE0006CB90D4B34701C700C4BE02283F81623B9
:109DF00083F81523FFF7B0FF2846FFF799FF2046A9
:109E000003B0F0BD0824FAE739AD002038AD0020DA
:109E1000061E0300BD6402003AAD002000E100E030
:109E2000014B1878704700BF39AD002007B50849CD
:109E30006846FEF7DBF9019B13B903B05DF804FB3C
:109E4000D3E9002090476846FEF7EAF9F3E700BF40
:109E5000181E0300FFF7EABF60DF704761DF70473D
:109E600030B5134DADF5017D4FF4FA740DF10201DB
:109E700003A8ADF80240FFF7F1FF70B9294601A829
:109E8000FEF7B4F9029B002BF0D003A8D3E9002120
:109E9000904701A8FEF7C4F9F4E7052804D0054A65
:109EA00040F23911FCF7CDFC0DF5017D30BD00BF4E
:109EB000801F03002C1F0300024B1B780BB1FFF720
:109EC000CFBF70473BAD002018B1034B03600020AB
:109ED00070470E20704700BFA8980020F8B50446D0
:109EE0000768FFF7B9FF2368BB42054620D91A4E21
:109EF0001A493088000440F00200FDF74FFF308817
:109F00002368174900043A4640F00200FDF754FF69
:109F10004FF080533088D3F80C31226811499B02EE
:109F200003F1005300049A1A40F00200FDF73AFFD3
:109F300025B90D4B01221A702846F8BD064B28465C
:109F40001C88FEF7A7F9240444F0010402460749DF
:109F50002046FDF727FFEFE7DCA20020851E030067
:109F6000B41E0300E51E03003BAD00200F1F0300DD
:109F70006CDF704772DF704774DF704776DF7047C1
:109F800077DF704778DF70477ADF70477CDF704794
:109F90007FDF704786DF70478ADF70478FDF70474B
:109FA000B1DF704769DF704733DF704741DF7047CB
:109FB00008B5024AA721FCF744FC08BDC81F0300EE
:109FC00008B503784BB9054B3B211888FFF7D6FF3E
:109FD00018B1034AB121FCF734FC08BDF4AE0020EF
:109FE000C81F030038B50D460446044800F040FE83
:109FF0002A4621460248FCF724FC38BDA41F030072
:10A00000EFBEADDE07B50023ADF800308DF80230AD
:10A01000114B1B681A788DF8032049F6E502ADF85C
:10A020000420C0228DF806205B884FF6FF72934211
:10A0300018BF8DF8013068461CBF1B0A8DF802302E
:10A04000FFF796FF20B1054A40F2BD11FCF7F9FB7E
:10A0500003B05DF804FB00BF3CAD0020C81F030047
:10A060001FB5FFF799FE20B1474A40F2C511FCF732
:10A07000E8FB04AC002344F8103D2046FFF724FF22
:10A0800020B1414A40F2C911FCF7DBFB0023CDE9C6
:10A090000133039301238DF804308DF80630009AC4
:10A0A000062301A92020ADF80830FFF77BFF20B17F
:10A0B000354A4FF4EA71FCF7C4FB0023CDE90133C4
:10A0C0000393009A012301A940208DF80530FFF782
:10A0D00069FF20B12C4A4FF4EE71FCF7B2FB00236C
:10A0E000CDE90133039301238DF80430009AF7235F
:10A0F00001A92320ADF80630FFF754FF20B1224A12
:10A1000040F2E311FCF79DFB0023CDE901330393FB
:10A11000009A0A2301A901208DF80430FFF742FFBD
:10A1200020B1194A40F2E911FCF78BFB0023CDE97D
:10A130000233009A4FF4B06301A9A1200193FFF705
:10A1400031FF20B1104A40F2EF11FCF77AFB0023F7
:10A15000009A039301A9A020CDE90133FFF722FF64
:10A1600020B1094A40F2F511FCF76BFB2046FFF7DE
:10A17000B5FE20B1044A4FF4FD71FCF762FBFFF716
:10A1800041FF04B010BD00BFC81F03007FB5204BC6
:10A19000204C93F85410002204AD0120FFF7F0FE8C
:10A1A000112305F80C3D23685E68304600F0A8FED8
:10A1B000314682B22846FFF7E9FE20B1164A4FF435
:10A1C0000471FCF73EFB4FF47070FFF7DBFE20B12B
:10A1D000114A4FF40571FCF734FB23685A899B89B7
:10A1E000ADF80A300D4BADF808201B68ADF80C3007
:10A1F0000B4B02A81B68ADF80E30FFF7C5FE20B16F
:10A20000054A40F21F21FCF71CFB04B070BD00BFE3
:10A2100040AD00203CAD0020C81F0300A01F03007C
:10A22000981F030070B5ACB0AA2200210DF1060002
:10A2300000F072FC01238DF804308DF88030154B4E
:10A24000154C1E68062233898DF80720022204254A
:10A250008DF8402023930021636B2A93182204F188
:10A260003C008DF8055000F057FC338963640DEB1A
:10A270000501204684F83C50FFF700F920B1074A59
:10A2800040F26621FCF7DDFA01210348FFF7F3F8FD
:10A290002CB070BD3CAD002040AD0020C81F0300B5
:10A2A00000B589B01422002101A800F035FC0C4B48
:10A2B0001B6802934FF47023039303238DF810302F
:10A2C000084B069301A8084B0793FFF7A9FB20B1A1
:10A2D000064A4FF41F71FCF7B4FA09B05DF804FBAD
:10A2E0009C1F0300C19F0200B19F0200C81F030012
:10A2F0007047000008B5FCF797FC20B1024A40F215
:10A30000A921FCF79EFA08BDC81F030008B5032168
:10A310000548FFF723F930F0080304D0034A40F260
:10A32000B621FCF78EFA08BD40AD0020C81F03001F
:10A3300008B5074B93F85400FFF71EFE30F00803F2
:10A3400004D0044A4FF43071FCF77BFA08BD00BF1B
:10A3500040AD0020C81F030003881D2B37B50446FD
:10A3600000F0A9801DD8132B7AD00AD8102B3DD02D
:10A37000112B56D05E4B13B12046AFF3008003B0D3
:10A3800030BD142B00F089801B2BF3D1037A012BF5
:10A39000F0D1FFF709FE0028ECD0564A4FF4957132
:10A3A0006AE0502B50D00ED8212B00F093803B2B2D
:10A3B000E0D113218088FFF7E1FD0028DAD04D4A73
:10A3C0004FF4997158E0522B59D043D3562BD1D129
:10A3D0008379002BCED1484B13211888FFF7CEFD8F
:10A3E0000028C7D0434A40F2391145E0424D8388E6
:10A3F0002B80424B042283F83C20FFF787FF002389
:10A400001A4619462888FFF7CBFD18B1394AD821DA
:10A41000FCF717FA3A4B002BACD02046AFF3008084
:10A42000A8E7354B4FF6FF721A80FFF781FF334BD9
:10A43000012283F83C20FFF769FF324B002B99D0B3
:10A440002046AFF3008095E72F4B002B92D0AFF35F
:10A4500000808FE72D4B002B8CD0AFF3008089E775
:10A46000254800231A4685210088FFF791FD002822
:10A4700080D0204A40F21311FCF7E3F97AE71E4836
:10A4800000231A4619460088FFF78AFD00283FF48A
:10A4900071AF184A40F21911EEE7174800231A4627
:10A4A00019460088FFF776FD00283FF463AF114A94
:10A4B00040F22311E0E7164B0BB1AFF300801549D2
:10A4C0000020FFF769FD00283FF454AF094A40F22D
:10A4D0005911D1E702A9002321F8043D8088FFF734
:10A4E0005DFD00283FF446AF024A40F26311C3E726
:10A4F00000000000C81F0300F4AE002040AD0020A3
:10A50000000000000000000000000000000000004B
:10A5100000000000D098002008B5FFF747FD20B1EB
:10A52000024A40F2D521FCF78CF908BDC81F030090
:10A5300008B50E4B1860FFF793FDFFF727FE0021CB
:10A540000B48FFF7F3FA20B10A4A40F22621FCF744
:10A5500078F9FFF7CDFEFFF765FEFFF7CBFEFFF7BB
:10A560009FFE05484FF6FF73038008BD3CAD0020F9
:10A57000F8AD0020C81F0300F4AE002070B50646F9
:10A580000D461E4CFFF7D4FE86B122461F2304F170
:10A59000550122F8983F3046C4F89410FEF766FD46
:10A5A00020B1174A4FF48761FCF74BF905B3154901
:10A5B000C4F89C101F2301F12C022846A4F8A030F7
:10A5C000FEF754FD20B10E4A4FF48861FCF739F9CB
:10A5D0000D4A02F1580102F11800FFF7CBFC20B13F
:10A5E000074A4FF48961FCF72CF9FFF78FFE70BD25
:10A5F000C4F89C50A4F8A050EAE700BF40AD00208A
:10A60000C81F0300B4AD00207CAD00200C4B1B78AC
:10A61000062B10D10B4B1B681A070CD10A4B18687C
:10A6200000F0F003302B08D000F0E000A0F1400370
:10A63000584258417047002070470120704700BFC2
:10A64000E00F00F0E40F00F0E80F00F0094B1B787A
:10A65000062B0CD1084B1B681A0708D1074B18684A
:10A6600000F0F000A0F1300358425841704700203C
:10A67000704700BFE00F00F0E40F00F0E80F00F0BB
:10A6800008B5FFF7C3FF28B17D4B7E4A1B68C3F3B3
:10A6900004231360FFF7DAFF10B17B4B7B4A1A608B
:10A6A000FFF7B4FF28B17A4B7A4A1B68C3F34233F1
:10A6B0001360FFF7CBFF20B1774AD36823F0807394
:10A6C000D360FFF7A3FF40B14FF080430022C3F8EF
:10A6D0000C21C3F81021C3F83825FFF7B7FF10B1DC
:10A6E0006E4B03221A60FFF7B1FF40B16C4B05229D
:10A6F0001A6001229A6700229A603F225A60694BD1
:10A700001B78062B50D1684B1B6819074CD1674B3F
:10A710001B6803F0F003502B46D14FF08052644B7E
:10A72000D2F80414C3F82015D2F80814C3F824157D
:10A73000D2F80C14C3F82815D2F81014C3F82C154D
:10A74000D2F81414C3F83015D2F81814C3F834151D
:10A75000D2F81C14C3F84015D2F82014C3F84415DD
:10A76000D2F82414C3F84815D2F82814C3F84C15AD
:10A77000D2F82C14C3F85015D2F83014C3F854157D
:10A78000D2F83414C3F86015D2F83814C3F864153D
:10A79000D2F83C14C3F86815D2F84014C3F86C150D
:10A7A000D2F84424C3F87025FFF730FF28B1414B9D
:10A7B000414A1B6803F04F031360FFF727FF48B1BE
:10A7C0004FF08043D3F80024D20744BF6FF001025A
:10A7D000C3F80024394B1B68062B08D1384B1B6883
:10A7E000062B01BF374A136843F480631360364A6F
:10A7F000D2F8883043F47003C2F88830BFF34F8F2B
:10A80000BFF36F8F4FF01023D3F80022002A03DB31
:10A81000D3F80432002B2FDA2C4B0122C3F8042585
:10A82000D3F80024002AFBD04FF010221521C2F8E3
:10A830000012D3F80024002AFBD04FF01023152279
:10A84000C3F80422214B1A46D3F800140029FBD088
:10A850000021C3F80415D2F80034002BFBD0BFF35D
:10A860004F8F19491A4BCA6802F4E0621343CB6058
:10A87000BFF34F8F00BFFDE7164B174A1A6008BDA4
:10A88000240300104035014074C007400DF0ADBAFC
:10A89000440200103C050040F0ED00E0A00500403F
:10A8A00010560040E00F00F0E40F00F0E80F00F059
:10A8B00000C0004058020010E40E004030010010BB
:10A8C000340100103C17004000ED00E000E00140C2
:10A8D0000400FA05D89800200090D0030649074AE2
:10A8E000074B9B1A03DD043BC858D050FBDCFFF735
:10A8F000C7FEFBF7A5FC000080230300A8980020FA
:10A90000E4A20020FEE7FEE7FEE7FEE7FEE7FEE743
:10A91000FEE7FEE7FEE7FEE708B50021044602F089
:10A920005DF9044B1868C36B03B19847204605F0E6
:10A9300011FA00BFF81F030070B50D4E0D4D761BC8
:10A94000B61006D00024013455F8043B9847A642BF
:10A95000F9D1094E094D761B06F012F8B61006D053
:10A960000024013455F8043B9847A642F9D170BD44
:10A9700088A2002088A2002094A2002088A20020A3
:10A98000044B054A1B685B6B002B08BF134693F80A
:10A9900028017047DC980020089D0020044B054AE0
:10A9A0001B685B6B002B08BF1346D3F8EC007047A5
:10A9B000DC980020089D002082B049B15AB16BB1EB
:10A9C00013780B601278101C18BF012002B070477A
:10A9D00001A9002AF3D1104602B070476FF00100C0
:10A9E000F4E700BF844641EA000313F003036DD18E
:10A9F000403A41D351F8043B40F8043B51F8043B42
:10AA000040F8043B51F8043B40F8043B51F8043B48
:10AA100040F8043B51F8043B40F8043B51F8043B38
:10AA200040F8043B51F8043B40F8043B51F8043B28
:10AA300040F8043B51F8043B40F8043B51F8043B18
:10AA400040F8043B51F8043B40F8043B51F8043B08
:10AA500040F8043B51F8043B40F8043B51F8043BF8
:10AA600040F8043B51F8043B40F8043B51F8043BE8
:10AA700040F8043B403ABDD2303211D351F8043B88
:10AA800040F8043B51F8043B40F8043B51F8043BC8
:10AA900040F8043B51F8043B40F8043B103AEDD237
:10AAA0000C3205D351F8043B40F8043B043AF9D288
:10AAB000043208D0D2071CBF11F8013B00F8013B5B
:10AAC00001D30B8803806046704700BF082A13D368
:10AAD0008B078DD010F003038AD0C3F10403D21A80
:10AAE000DB071CBF11F8013B00F8013B80D331F8B4
:10AAF000023B20F8023B7BE7043AD9D3013A11F834
:10AB0000013B00F8013BF9D20B7803704B7843709E
:10AB10008B78837060467047F0B4860743D0541E2C
:10AB2000002A3ED0CAB2034602E014F1FF3438D303
:10AB300003F8012B9D07F8D1032C2BD9CDB245EAA0
:10AB400005250F2C45EA054516D9A4F110073F0944
:10AB500003F1200606EB071603F1100242E9045543
:10AB600042E902551032B242F8D104F00F04013725
:10AB7000032C03EB07130DD91E462246043A032A81
:10AB800046F8045BFAD8221F22F003020432134471
:10AB900004F003042CB1C9B21C4403F8011B9C420D
:10ABA000FBD1F0BC704714460346C5E70FB400B5AF
:10ABB000074983B004AB086853F8042B81680193FC
:10ABC00000F00EFA03B05DF804EB04B0704700BF6C
:10ABD000DC98002070B5054688B008460C4600F0A9
:10ABE0008FF9224AAB6B04940126441C04A90692F7
:10ABF000022203940590AC680796CDE901121BB3BD
:10AC0000616EB4F90C30CE079AB201D4900525D507
:10AC1000910406D4626E43F4005322F40052A381DF
:10AC20006266284601AA214603F092FA636E002864
:10AC30000CBF0A254FF0FF35DA0702D4A3899B0524
:10AC400006D5284608B070BD284603F0EBF8D7E7D4
:10AC5000A06D03F039FC284608B070BDA06D03F06C
:10AC600031FCB4F90C309AB2D2E700BF0C200300DB
:10AC7000024B01461868FFF7ADBF00BFDC9800200B
:10AC800000290CBF022200224FF4806300F000B8BC
:10AC90002DE9F0435D4C256883B00446884616468E
:10ACA0001F4615B1AB6B002B7ED0022E05D0012EB6
:10ACB00000F2A980002FC0F2A680636EDA0735D5B6
:10ACC0002146284603F052F8216B41B104F14003BC
:10ACD000994202D0284603F047F900232363B4F9D0
:10ACE0000C3000221806A261626061D423F44A632A
:10ACF00023F00303022EA3811FD10025616E0020E3
:10AD000004F1430243F00203A060C9074FF00100C1
:10AD1000A3812260C4E9042004D49B0502D4A06D61
:10AD200003F0D2FB284603B0BDE8F083A3899B055E
:10AD3000C6D4A06D03F0C6FBC2E701AB6A4621464C
:10AD4000284603F0C3FBA3891843A081002F36D106
:10AD5000009F384603F032FC8046002842D0A38989
:10AD600043F08003A381AB6B7BB3009AB4F90C3042
:10AD7000C4F80080BA421CBF43F40063A381012ED3
:10AD800004BF43F00103A3819BB213F00802C4E99E
:10AD900004871ED1A260656E15F00105BDD00025A7
:10ADA000284603B0BDE8F083284603F03BF87CE773
:10ADB0002169284603F0D8F8B4F90C3096E7B8F1C9
:10ADC000000FC6D0AB6B002BCFD1284603F02AF87A
:10ADD000CBE7DA0704D57F420022A761A260DAE759
:10ADE000A760D8E7DDF80090B94504D1B4F90C307C
:10ADF0004FF0FF3582E7484603F0E0FB804600282D
:10AE0000F4D04F46ABE74FF0FF358BE7DC980020DE
:10AE100080EA0102844612F0030F4FD111F0030FB4
:10AE200032D14DF8044D11F0040F51F8043B0BD012
:10AE3000A3F101329A4312F0803F04BF4CF8043B67
:10AE400051F8043B16D100BF51F8044BA3F1013275
:10AE50009A4312F0803FA4F101320BD14CF8043B2D
:10AE6000A24312F0803F04BF51F8043B4CF8044B5E
:10AE7000EAD023460CF8013B13F0FF0F4FEA3323CF
:10AE8000F8D15DF8044B704711F0010F06D011F8AE
:10AE9000012B0CF8012B002A08BF704711F0020F9C
:10AEA000BFD031F8022B12F0FF0F16BF2CF8022B87
:10AEB0008CF8002012F47F4FB3D1704711F8012BAA
:10AEC0000CF8012B002AF9D1704700BF00000000E8
:10AED0000000000000000000000000000000000072
:10AEE0000000000000000000000000000000000062
:10AEF0000000000000000000000000000000000052
:10AF000090F800F06DE9024520F007016FF0000CA9
:10AF100010F0070491F820F040F049804FF0000451
:10AF20006FF00700D1E9002391F840F000F108002C
:10AF300082FA4CF2A4FA8CF283FA4CF3A2FA8CF364
:10AF40004BBBD1E9022382FA4CF200F10800A4FACB
:10AF50008CF283FA4CF3A2FA8CF3E3B9D1E904231F
:10AF600082FA4CF200F10800A4FA8CF283FA4CF356
:10AF7000A2FA8CF37BB9D1E9062301F1200182FA10
:10AF80004CF200F10800A4FA8CF283FA4CF3A2FA16
:10AF90008CF3002BC6D0002A04BF04301A4612BA24
:10AFA000B2FA82F2FDE8024500EBD2007047D1E927
:10AFB000002304F00305C4F100004FEAC50514F0B6
:10AFC000040F91F840F00CFA05F562EA05021CBF87
:10AFD00063EA050362464FF00004A9E700000000A1
:10AFE0002DE9F04FD7B01C46894617460546039019
:10AFF00003F056FA036816931846FFF781FF08948A
:10B0000015901DB1AB6B002B00F00781D9F86410CF
:10B01000B9F90C20C80793B202D4990540F11F81F9
:10B020009E040AD4D9F8641042F4005321F400516C
:10B03000A9F80C30C9F864109BB21D0740F1B2802A
:10B04000D9F81020002A00F0AD8003F01A020A2A75
:10B0500000F0C98000239FED867B1093CDE92B3350
:10B060001793CDE919331B93189305932DAB2A93AE
:10B070009B463B78CDF81C908DED127B002B00F0A9
:10B080005982252B3C4602D11DE0252B03D014F814
:10B09000013F002BF9D1E51B8DB1DDE92B320133E6
:10B0A0002A44072BCBF80070CBF80450CDE92B32A3
:10B0B00000F3CA800BF1080B059B2B440593237802
:10B0C000002B00F0378200236678069398468DF8AF
:10B0D0008B3004F1010A4FF0FF392B250AF1010AE8
:10B0E000A6F120035A2B00F22A84DFE813F0AA030A
:10B0F000280428049C02280428042804A702280401
:10B100002804C602D2022804D702DC022804F60270
:10B110006D026D026D026D026D026D026D026D02B7
:10B120006D0228042804280428042804280428047C
:10B13000FB0228043C03F303FB02FB02FB0228048E
:10B14000280428042804EE03280428049A0028046C
:10B1500028042804500328047903280428049003B1
:10B16000280428042804280428042804280428047F
:10B17000FB0228043C03C500FB02FB02FB02D103D7
:10B18000C50070002804B5032804C2039C00DE0338
:10B1900070002804500372002C02280428047C024A
:10B1A000280472004946039801F0A8FCA0B1D9F820
:10B1B0006430D80704D4B9F80C30990540F1B7834E
:10B1C0004FF0FF330593059857B0BDE8F08F48F076
:10B1D00020089AF8006081E7B9F80C3003F01A02F1
:10B1E0000A2A7FF437AFB9F90E20002AFFF632AFF2
:10B1F000D9F86420D20705D49B0503D4D9F85800A8
:10B2000003F062F923463A464946039801F026FCCA
:10B210000590059857B0BDE8F08F039802F002FE44
:10B22000F4E648F0100818F0200F00F06C83089C3A
:10B23000073424F00703D3E9004503F1080208921C
:10B2400028F4806300228CE12AAA0799039804F06D
:10B25000DFFA002841F076830DF1B40B2CE7D9F822
:10B26000580003F02FF9B9F90C2093B2D8E600BFCB
:10B27000000000000000000043469F0640F12F83BD
:10B28000089C073424F00704D4E9000104F1080203
:10B29000089204460D46002871F1000205DA2D22BD
:10B2A000644265EB45058DF88B2056AAB9F1FF3F46
:10B2B000049200F0B284012254EA050123F08008D0
:10B2C00040F05981B9F1000F40F01986002A40F092
:10B2D000088513F0010356AF099302D0302307F815
:10B2E000013D00230A930F9314931193099B9DF83A
:10B2F0008B204B45B8BF4B46049312B1049B0133DE
:10B30000049318F002030B9302D0049B02330493BE
:10B3100018F084032C9C0E933FD1069B04995D1A70
:10B32000002D3ADD102D2B9A29DD59462046209616
:10B330001023039C079EBB4604E0103D102D01F135
:10B34000080118DD0132BA4F1030072ACDE92B2051
:10B35000C1E90073F1DD2AAA314620460C9304F0BE
:10B3600057FA002840F03D84103D102DDDE92B20D8
:10B370002DA90C9BE6DC209E5F4604468B460132DD
:10B38000AB4B2C44072ACDE92B24CBE9003500F345
:10B39000FF849DF88B200BF1080B72B12B9A0132C0
:10B3A00001340DF18B000121072ACDE92B24CBE9D3
:10B3B000000100F318840BF1080B0B9B6BB12B9B66
:10B3C0000133023423A90222072BCDE92B34CBE928
:10B3D000001200F315840BF1080B0E9B802B00F07C
:10B3E0003183099BA9EB0305002D37DD102D2B9A26
:10B3F000904B28DD59462046BB464FF01009374692
:10B400001C46079E04E0103D102D01F1080115DDDA
:10B4100001321030072ACDE92B20C1E90049F2DDC5
:10B420002AAA3146039804F0F3F9002840F0D983A2
:10B43000103D102DDDE92B202DA9E9DC3E462346E9
:10B440005F4604468B4601322C44072ACDE92B2463
:10B45000CBE9003500F3EF830BF1080B18F4807F84
:10B4600040F080822B9B099ACBF800700133144482
:10B47000072B2C94CBF804202B9300F392830BF131
:10B48000080B18F0040F3BD0069B049A9D1A002D60
:10B4900036DD102D2B9B21DD1026039FDDF81C804F
:10B4A00004E0103D102D0BF1080B17DD0133604A4D
:10B4B0001034072BCDE92B34CBE90026F1DD2AAA85
:10B4C0004146384604F0A4F9002840F06C85103D50
:10B4D000102DDDE92B340DF1B40BE7DC0133544AB8
:10B4E0002C44072BCDE92B34CBE9002508DD2AAA13
:10B4F0000799039804F08CF9002840F0E9822C9C0D
:10B500000499DDE905328A42ACBF9B185B180593AC
:10B51000002C40F0D58200232B930A9B1BB10A9983
:10B52000039802F021FD0DF1B40B57463B78002B38
:10B530007FF4A7AD2C9BDDF81C90002B41F0E78039
:10B5400000232B93CBE243469A0640F14E81089CA0
:10B55000073424F0070202F10801D2E900450891FE
:10B56000012200218DF88B10B9F1FF3F56A90491FB
:10B570007FF4A2AE9846012A00F05083022A00F020
:10B580001B8356A900E03946E20842EA4572E80802
:10B5900004F0070305461446303354EA050201F867
:10B5A000013C01F1FF37EED118F0010F00F01483D8
:10B5B000302B00F01183049A02393023521A07F815
:10B5C000013C09920F468CE6A6F1300300221AF8DE
:10B5D000016B02EB820203EB4202A6F13003092B5E
:10B5E000F5D906927CE5144B179318F0200F00F064
:10B5F0001481089C073424F00703D3E9004503F1C4
:10B600000802089218F0010F09D054EA050306D089
:10B6100030238DF88D6048F002088DF88C3028F4C6
:10B62000806302229DE748F001089AF8006055E522
:10B63000542003006420030020200300039E3046B2
:10B6400002F02EFF436818931846FFF759FC1B9031
:10B650000446304602F024FF83681A93002C3FF41E
:10B66000B8AD9AF80060002B3FF438AD1B78002B82
:10B670003FF434AD48F4806830E5089B9AF80060E8
:10B680001A680692002A03F10403C0F29786089311
:10B6900024E58DF88B509AF800601FE59AF8006059
:10B6A00048F004081AE59AF800602A2E0AF101020F
:10B6B00001F0B081A6F13003092B92464FF000094A
:10B6C0003FF60EAD1AF8016B09EB890903EB490946
:10B6D000A6F13003092BF5D902E548F080089AF865
:10B6E0000060FBE4089C073424F0070494ED007B21
:10B6F00052EC171B22F000431D938DED1C7A083489
:10B70000DDE91C014FF0FF32BA4B08948DED127B3E
:10B7100004F078FF002840F06F844FF0FF32B54B03
:10B72000DDE91C0104F050FF002840F06584002290
:10B730000023DDE9120104F03DFF002840F05B85A5
:10B740009DF88B20AC4FAD4B0020032104910A9053
:10B7500028F08008472ED8BF1F46099181460F90D8
:10B7600014901190C9E50898002301688DF88B307A
:10B770001A468DF8F4100123011D04930A92914694
:10B780000F9214921192CDE908133DAFB9E5089BD1
:10B790001F6800258DF88B501C1D002F00F0398686
:10B7A000B9F1FF3F00F011874A462946384603F0B9
:10B7B000BFF90A90002800F0E7850A9BDB1B09937C
:10B7C000A94623EAE37308940493CDF82890CDF8B2
:10B7D0003C90CDF85090CDF844909DF88B208CE5AE
:10B7E00048F010039A063FF5B2AE089ADF0602F160
:10B7F000040100F17E835D06089A00F1E4849C0553
:10B8000040F177831478089100250122A9E67C4B4A
:10B81000179318F0200F7FF4ECAE089A18F0100F71
:10B8200002F1040340F0548318F0400F089A40F0EE
:10B83000D08418F4007F00F04B831478089300251F
:10B84000E0E69DF88B309AF80060002B7FF446AC60
:10B8500020238DF88B3041E49AF800606C2E03BFF2
:10B860009AF8016048F020080AF1010A48F010082F
:10B8700034E4089A18F0200F52F8043B089200F0C4
:10B88000A183059A1046D117C3E9000157464DE63A
:10B890009AF80060682E03BF9AF8016048F40078B7
:10B8A0000AF1010A48F0400818E40899554B0C6861
:10B8B000179347F630020431ADF88C2048F00203AC
:10B8C00008910025022278264BE648F008089AF8ED
:10B8D000006003E448F010039F063FF5D1AC0899DF
:10B8E000DD0601F1040200F1FD825C06089900F119
:10B8F0007584980540F1F68291F900400892E517A9
:10B9000020462946C7E4089A18F0100F02F10403F4
:10B9100040F0E38218F0400F089A40F0678418F472
:10B92000007F00F0DA8214780893002588E4D9F8C3
:10B93000580002F0C9FD4FF0FF33059343E4002E99
:10B940003FF4F8AD002301211A4604918DF8F4600C
:10B950008DF88B300A9399460F93149311930991A4
:10B960003DAFCEE4652E40F3CA8000220023DDE91E
:10B97000120104F015FE002800F069812B9B224A79
:10B98000CBF80020013301340122072BCDE92B3401
:10B99000CBF8042000F306840BF1080B249B109ACB
:10B9A0002C9C934203DB18F0010F3FF46AAD2B9BF4
:10B9B000169ACBF80020159ACBF8042001331444D2
:10B9C000072BCDE92B3400F317850BF1080B109BE7
:10B9D0005D1E002D7FF755AD102D2B9A0B4B40F3BC
:10B9E000E782194610262346039FDDF81C900C467B
:10B9F00014E000BFFFFFEF7F1420030010200300BE
:10BA000034200300202003005020030064200300A2
:10BA10000BF1080B103D102D40F3C782013210339B
:10BA2000072ACDE92B23CBE90046F1DD2AAA4946B6
:10BA3000384603F0EDFE00284CD1DDE92B230DF153
:10BA4000B40BE7E7069B049A9D1A002D7FF7C9AC5B
:10BA5000102D2B9ABC4B27DD59462046BB461C4671
:10BA60003746079E04E0103D102D01F1080116DD58
:10BA7000013210301023072ACDE92B200C604B60D7
:10BA8000F1DD2AAA3146039803F0C2FE002840F0F7
:10BA9000A880103D102DDDE92B202DA9E8DC3E46C5
:10BAA00023465F4604468B4601322C44072ACDE9E3
:10BAB0002B24CBE9003500F392820BF1080B90E4C4
:10BAC0002AAA0799039803F0A3FE00283FF423ADA8
:10BAD000DDF81C900A9911B1039802F045FAD9F8E3
