:020000022000DC
:1060000000000120C5C50200EDC502006D77020049
:10601000F1C50200F3C50200F5C502000000000052
:10602000000000000000000000000000F7C50200B2
:10603000F9C5020000000000FBC50200FDC502001A
:1060400001940200FFC50200A9980200D5A5020034
:10605000E19F0200FFC502001D970200759D02002E
:10606000A5A50200B5A50200FFC50200FFC50200FC
:10607000FFC50200FFC50200FFC50200FFC5020008
:10608000FFC502000D720200FFC50200FFC502003D
:10609000A9720200FFC50200ADBB0200FFC50200ED
:1060A000FFC50200FFC50200FFC50200FFC50200D8
:1060B0002D9D0200FFC5020000000000000000004E
:1060C000FFC502003D9D02004D9D0200FFC502007C
:1060D000FFC50200FFC50200FFC50200000000006E
:1060E00000000000000000000000000000000000B0
:1060F00000000000000000000000000000000000A0
:10610000000000000000000000000000000000008F
:10611000000000000000000000000000000000007F
:10612000000000000000000000000000000000006F
:10613000000000000000000000000000000000005F
:10614000000000000000000000000000000000004F
:10615000000000000000000000000000000000003F
:10616000000000000000000000000000000000002F
:10617000000000000000000000000000000000001F
:10618000000000000000000000000000000000000F
:1061900000000000000000000000000000000000FF
:1061A00000000000000000000000000000000000EF
:1061B00000000000000000000000000000000000DF
:1061C00000000000000000000000000000000000CF
:1061D00000000000000000000000000000000000BF
:1061E00000000000000000000000000000000000AF
:1061F000000000000000000000000000000000009F
:1062000010B5054C237833B9044B13B10448AFF3F0
:1062100000800123237010BD20A300200000000097
:10622000F047030008B5034B1BB103490348AFF324
:10623000008008BD0000000024A30020F0470300F8
:10624000154B002B08BF134B9D46A3F5803A002148
:106250008B460F461348144A121A06F003FB0F4BE5
:10626000002B00D098470E4B002B00D09847002001
:10627000002104000D000D48002802D00C4808F051
:10628000C1FB06F0CDF92000290000F011FA06F05C
:10629000B7F900BF00000800000001200000000066
:1062A0000000000020A30020ACAF002005EA02009F
:1062B000D5FB0200054B1A6852F8203023F0010389
:1062C00011B942F8203070470133FAE7AC9800204A
:1062D000054B1A68012303FA00F0D368184214BF73
:1062E00001200020704700BFA898002070470000E0
:1062F0006328054B054992BF188064221A80044820
:106300000223012203F0C2BC40A300204C2C030056
:10631000DC9800206328054B054992BF5880642211
:106320005A8004480223012203F0B0BC40A300209D
:106330004C2C0300DC9800206328054B054992BFD4
:10634000988064229A8004480223012203F09EBCB4
:1063500040A300204C2C0300DC9800206328054B50
:10636000054992BFD8806422DA80044802230122C2
:1063700003F08CBC40A300204C2C0300DC980020D0
:10638000037CC02B0FD1C37B982B0CD1837BE52BD7
:1063900009D1437B492B06D1036A034A197A11704C
:1063A0005A7A024B1A707047E0AE0020F8AE002017
:1063B00010B52DED028B002082B0B0EE408AFFF7C1
:1063C00097FFFCEEC87ACDED017A9DF80440204697
:1063D000FFF7A0FF2046FFF7AFFF002002B0BDECA3
:1063E000028BBDE81040FFF7B9BF13B5FCEEC07AD1
:1063F000CDED017A9DF804402046FFF779FF00209B
:10640000FFF788FF0020FFF797FF204602B0BDE8A6
:106410001040FFF7A3BF10B52DED028B002082B016
:10642000B0EE408AFFF764FFFCEEC87ACDED017A4A
:106430009DF804402046FFF76DFF0020FFF77CFF2A
:10644000204602B0BDEC028BBDE81040FFF786BFCE
:1064500013B5FCEEC07ACDED017A9DF804402046DC
:10646000FFF746FF0020FFF755FF2046FFF764FFC8
:10647000002002B0BDE81040FFF770BF07B5FCEE8A
:10648000C07ACDED017A9DF80400FFF731FF0020BE
:10649000FFF740FF0020FFF74FFF002003B05DF83B
:1064A00004EBFFF75BBF00B52DED028B002083B03E
:1064B000B0EE408AFFF71CFFFCEEC87ACDED017A02
:1064C0009DF80400FFF726FF0020FFF735FF0020AE
:1064D00003B0BDEC028B5DF804EBFFF73FBF00B5E6
:1064E0002DED028B002083B0B0EE408AFFF700FF55
:1064F0000020FFF70FFFFCEEC87ACDED017A9DF882
:106500000400FFF719FF002003B0BDEC028B5DF81B
:1065100004EBFFF723BF00B52DED028B002083B005
:10652000B0EE408AFFF7E4FE0020FFF7F3FE002004
:10653000FFF702FFFCEEC87ACDED017A9DF804006A
:1065400003B0BDEC028B5DF804EBFFF707BF08B5A5
:106550000020FFF7CDFE0020FFF7DCFE0020FFF754
:10656000EBFE0020BDE80840FFF7F8BE2DE9F84338
:10657000434B444C2DED048B93ED009A424B9FED21
:10658000438AD3ED007A424B77EEC97AC3ED007AA5
:1065900017EE900A0BF09AFD3E4BD3E90023064616
:1065A0000F460BF0EBFD8046206889460BF08EFD10
:1065B00002460B46404649460BF02AFC0CF0B6F862
:1065C00007EE100AB4EEC87AF1EE10FA3FDD84ED62
:1065D000008A314D314BD5ED008A79EE688A30461C
:1065E000C3ED008A2E4B3946D3E900230BF0C6FDDC
:1065F000064620680F460BF069FD02460B46304602
:1066000039460BF005FC064618EE900A0F460BF0D3
:106610005DFD244BD3E900230BF0B0FD0B46024691
:10662000394630460BF0F2FB0CF080F807EE100A0A
:10663000B4EEC87AF1EE10FA1B4B14DD83ED008A3C
:1066400085ED009ABDEC048B0120BDE8F883DFEDF9
:10665000177AB4EEE77AF1EE10FA58BFF0EE477A07
:10666000C4ED007AB5E7DFED117AB4EEE77AF1EE2A
:1066700010FA58BFF0EE477AC3ED007AE0E700BFAA
:10668000E8AE00203CA30020E49800200000C842AF
:10669000F0AE0020C8980020D8980020ECAE002072
:1066A000D0980020C0980020F4AE00200000C8C29E
:1066B0002DE9F0472DED028B4FF4004198B00020FA
:1066C00001F036FF20B1C44A4FF4B17100F04BFD28
:1066D000C24C01F04BFEC24806F070F994E80F007E
:1066E0000CAD103485E80F0094E80F0010AE86E87A
:1066F0000F0000231A463146284601F071FA20B1F6
:10670000B54A4FF4BA7100F02EFD284600F0ECF9BE
:10671000B44B00249C651C67C3E903440121042099
:10672000FFF7C8FD01210320FFF7C4FD012102206E
:10673000FFF7C0FD01210520FFF7BCFD40F2071364
:1067400018A8ADF82230022300F8403DA6498DF884
:10675000214003F0C1FB20B19F4A4FF4C47100F007
:1067600002FDA24B0FCB14AC84E80F0013221423BC
:1067700021469F48CDE9142302F040FD20B1964AFE
:1067800040F2951100F0EFFC9A4A1068516809AB8D
:1067900003C390681860002209A9974803F082F9A2
:1067A00018B18D4ADE2100F0DEFC944805F07CFD36
:1067B000934B186005F066FC05F058FD8C4800F01E
:1067C00071FA904806F0FAF8002400F0BDFAC0EE25
:1067D000817ADFF888A20134B0EE418A17EE900A80
:1067E0008DED0B1A10EE105AF0EE608A8DED090A4D
:1067F000CDED0A0A0BF06AFC41EC100B0BF04CF9E2
:10680000002251EC100B804B0BF0B8FC70A3D3E9C5
:1068100000230BF0DDFD00227C4B0BF0F9FA0BF0AE
:1068200085FFCAF80000FFF7A1FE642C5AD1784812
:1068300006F0C4F8774806F0C1F828460BF046FC8D
:10684000044618EE900A0D460BF040FC064618EE82
:10685000100A0F460BF03AFC8946804622462B462A
:10686000CDE90067CDE902896B4806F045F8DAF812
:1068700000000BF02BFC2246CDE904012B46CDE9AC
:106880000067CDE902896548654E06F035F8654B2D
:1068900018680BF01BFC644B044618680D460BF09F
:1068A00015FCCDE9060130680BF010FCCDE90401C0
:1068B0005E4B18680BF00AFCCDE902015C4B1868CE
:1068C0000BF004FC2246CDE900012B46594806F0A6
:1068D00013F830680BF0FAFB02460B46564806F0F8
:1068E0000BF800241620FFF7F3FC002800F0D880F6
:1068F000DAED007A9FED517AF4EEC77AF1EE10FAF4
:1069000006D49FED4F7AF4EEC77AF1EE10FA14DD5B
:106910004C4806F053F8424B93ED000AB5EEC00A1E
:10692000F1EE10FA04DDFFF743FD05F0B1FC4CE792
:10693000B1EE400AFFF759FDF7E7434B1B78962B62
:1069400016D9424B1B78A3F16F02262A36D840484D
:10695000404E06F033F89FED400AFFF746FD6425F0
:1069600046F001064FF47A40B047013DFAD1DCE72A
:106970006D2B00F29080354B1B786F3B262B7AD81D
:106980009FED350A334EFFF713FD642546F00106EF
:106990004FF47A40B047013DFAD1C6E72B4A12784E
:1069A000962A04D99FED2E0AFFF752FDBDE76D2A06
:1069B0005FD89FED2B0AFFF72EFDB6E7962B51D936
:1069C0009FED270AFFF75AFDAFE700BFAFF3008046
:1069D0006F1283C0CA210940452C0300E42A03003A
:1069E000262B030000070050ED620200042B030079
:1069F000802C0300142B0300DC980020B0980020AA
:106A0000E4AE0020372B0300008076400080564023
:106A10004C2B03007F2B0300B22B0300DA2B030067
:106A2000F4AE0020F0AE0020D8980020ECAE00209C
:106A30003CA30020F52B0300252C03000000484256
:106A400000000243332C0300E0AE0020F8AE00202B
:106A50003D2C0300202B030000007042E8AE002014
:106A60000000A0426D2B1BD81FED030AFFF753FD5A
:106A70005BE76D2B14D80C4B1B78962B04D99FED3C
:106A80000B0AFFF710FD50E76D2B09D89FED070AA1
:106A9000FFF725FD49E76E2B02D0962B7FF47EAFE2
:106AA000FFF755FD41E700BFF8AE00200000A0420F
:106AB0001FB500220091022369460430CDE901325E
:106AC000039203F0D7FB05B05DF804FB38B5054D24
:106AD0000A2445F001054FF47A40A847013CFAD159
:106AE00038BD00BFA02C030073B502AC0E2324F800
:106AF000043D374E21463060FFF7DAFF0546C0B14E
:106B0000344A182100F02FFB284602B070BD314AEC
:106B10002221F7E72F4A2C21F4E72E4A3621F1E70C
:106B20002C4A4021EEE72B4A4A21EBE7294A54211F
:106B3000E8E7FFF7CBFF022321463068ADF80430C9
:106B4000FFF7B6FF05460028E1D1FFF7BFFF4FF47E
:106B5000804321463068ADF80430FFF7A9FF0546B1
:106B60000028D7D1FFF7B2FF48F201032146306871
:106B7000ADF80430FFF79CFF05460028CDD1FFF7A4
:106B8000A5FF4FF4004321463068ADF80430FFF70D
:106B90008FFF05460028C3D1FFF798FF44F2030397
:106BA00021463068ADF80430FFF782FF0546002823
:106BB000B9D1FFF78BFF402321463068ADF8043090
:106BC000FFF776FF05460028B0D1FFF77FFF9BE770
:106BD00088A30020A62C0300704700007FB540006A
:106BE00003AB8DF80C108DF8150000210B480493B1
:106BF000009102238DF80D208DF8143004AA012392
:106C000000688DF8161002F063FB18B1044A3221B7
:106C100000F0A9FA07B05DF804FB00BF8CA30020C8
:106C2000202D030000B58BB00DF10F030693012357
:106C300098408DF81D0018438DF80F108DF8250031
:106C400000210F4800910DF117028DF81C308DF8CE
:106C50001E3008928DF8243006AA022300688DF8B1
:106C600017108DF8261002F033FB18B1054A2821C1
:106C700000F079FA9DF817000BB05DF804FB00BF37
:106C80008CA30020202D030038B5054D044645F0A7
:106C900001054FF47A40A847013CFAD138BD00BF46
:106CA000102D030007B5234B234A186092E8030018
:106CB0006B4683E80300214A2148194603F0B6FBDE
:106CC00018B1204A432100F04EFA80226B2168203F
:106CD000FFF784FF6420FFF7D7FF00226B216820B5
:106CE000FFF77CFF00226A216820FFF777FF03206F
:106CF000FFF7CAFF022237216820FFF76FFF182233
:106D00001B216820FFF76AFF00221C216820FFF783
:106D100065FF01220B210C20FFF760FF6420FFF7C5
:106D2000B3FF02220A210C20FFF758FF03B05DF8E1
:106D300004FB00BF8CA30020002D0300D96B0200D0
:106D4000182D0300202D030070B53B2188B068206A
:106D5000FFF768FF3C2104466820FFF763FF40EA25
:106D6000042006B23D216820FFF75CFF3E21044667
:106D70006820FFF757FF40EA042005B23F21682052
:106D8000FFF750FF402104466820FFF74BFF07EE56
:106D9000105A40EA042000B207EE906AF8EEC70AE3
:106DA00007EE100AB8EEE70AB8EEC71ADFED047A6C
:106DB00020EE270A60EEA70A21EE271A08B070BD60
:106DC0000000803838B5054D044645F001054FF404
:106DD0007A40A847013CFAD138BD00BF302E0300ED
:106DE0007FB505460E46144672B601F0D3FD01F09C
:106DF00007FC0028FBD13E4805F0E0FD41F201030D
:106E00009D4264D006D8012D12D03146394805F094
:106E100073FD10E044F201039D425AD044F2020394
:106E20009D42F2D122886168334805F065FD02E099
:106E3000324805F061FD02F07DFB08B902F046FB27
:106E40000023ADF80C308DF80E3003A90123192072
:106E50008DF80D3002F078FB03A9182002F074FBC6
:106E600003A9172002F070FB192002F029FC18205A
:106E700002F026FC172002F023FC4FF4FA70FFF713
:106E8000A1FF192002F0EEFB182002F0EBFB172007
:106E900002F0E8FB3220FFF795FF192002F010FC0A
:106EA000182002F00DFC172002F00AFC4FF4FA70D3
:106EB000FFF788FF192002F0D5FB182002F0D2FB63
:106EC000172002F0CFFBFA20FFF77CFFCCE70C483D
:106ED000AFE7A568284602F07FF823680196009383
:106EE000024663680748294605F006FDA3E700BF90
:106EF000752D0300112E0300CC2D03008D2D0300F2
:106F0000AA2D0300E72D030007B502F013FB08B913
:106F100002F0DCFA0023ADF804308DF8063001A948
:106F2000012319208DF8053002F00EFB01A918206D
:106F300002F00AFB01A9172002F006FB192002F05B
:106F4000BFFB182002F0BCFB172002F0B9FB4FF486
:106F5000FA70FFF737FF192002F084FB182002F0C7
:106F600081FB172002F07EFB3220FFF72BFF192058
:106F700002F0A6FB182002F0A3FB172002F0A0FBF2
:106F80004FF4FA70FFF71EFF192002F06BFB182078
:106F900002F068FB172002F065FBFA20FFF712FFF2
:106FA000CCE70369C1688B429DBF8268D21802F1A9
:106FB000FF3203F1FF3394BF501A581A70472DE97E
:106FC000F041D0E902670446F61B406896428846C5
:106FD0001546384405D905F0ABFB3D44E560BDE8F6
:106FE000F0813246AD1B05F0A3FB2A4608EB0601F3
:106FF000606805F09DFBF1E72DE9F843C56806469A
:10700000894617464FF000083469B3687068A54296
:1070100028BFE418013C621B5C1BBC4228BF3C46F5
:10702000944228BF144649462844224605F080FB76
:10703000B3682544AB4208BF00253F1BA044A144D0
:10704000F560E1D14046BDE8F883000010B5114C71
:10705000114AA2610223C4E90433104BE361A26424
:107060004FF400730E4A2362E264002310220D499C
:10707000A362E01D6362E362A3656365E365226565
:1070800005F06CFD0849204605F068FD2023A3713A
:1070900010BD00BFFCAE0020362E0300A0A30020D0
:1070A00090A300203F2E0300432E0300F8B5184C98
:1070B000182300FB033503FB00402544C46A012C60
:1070C0000F46164611D003D3022C1BD000240AE031
:1070D0002846FFF766FF864205D8324639462846DD
:1070E000FFF76DFF34462046F8BD2846FFF759FFED
:1070F0008642344628BF0446224639462846FFF7D2
:107100005EFFF0E72846BDE8F840FFF775BF00BF17
:10711000FCAE002073B50D4B1B7804460D46164699
:107120000BB9FFF793FF02A8002300F8013D00F020
:10713000C5FA324629462046FFF7B8FF04469DF8B7
:10714000070000F0EBFA204602B070BDFCAE002054
:10715000FFF77CBF10B511461C461A460020FFF70A
:10716000D9FF204610BD00B583B002900091019276
:1071700044F2010071466A46FFF732FE03B000BDDB
:10718000094A537891780133DBB2994208BF002352
:10719000117899421FBF03705078182303FB002019
:1071A00014BF043000207047A0A5002073B5054629
:1071B00002A8002400F8014D0E4600F07FFA0DF100
:1071C0000600FFF7DDFF90B106700A4B9DF8062020
:1071D00045605A709DF8070000F0A0FA24B9064BEC
:1071E0004FF48012C3F80021204602B070BD042481
:1071F000F0E700BFA0A5002000E100E0024B4FF443
:107200003C6043F001031847502E0300F8B51F4BB4
:107210001F491B680025C1F84051C1F84451C1F80D
:107220004851C1F84C51C1F80051C1F804514BB359
:10723000D1F8044517490968641A24F07F442F46A1
:107240001A68A24209D8A41A15441A7CDE691AB138
:107250001F74D3E905209047AEB90F4B0F4A197838
:1072600013788B4205D10133DBB2022B08BF002318
:10727000137012780A4B43F822500A4B4FF48012D5
:10728000C3F80021F8BD3346DAE700BFC0A60020EE
:1072900000100140BCA60020B8A60020B9A600201E
:1072A000B0A6002000E100E02DE9F74F9C4A9D497F
:1072B000137809789C4D99423CD00133DBB2022B04
:1072C00008BF0023137099491278994B0F6853F83F
:1072D00022003B1823F07F4300220B602B681646E8
:1072E0001446944613B942B12B6006E019688142F6
:1072F0000ED902B12B60091A19604FF001082B68F2
:10730000DFF834A200930027BEB9DFF834B260E0A2
:10731000401A0C44D968C3F800C0D3F81CE031B15E
:107320003A1922F07F42C3E90121DE611E460122A3
:107330007346D7E70026B046E1E73446F6697B4A54
:1073400063681268DFF8FCC1A068991A21F07F41D8
:10735000614500F2A58001442160012222742A685F
:107360000023C4E90133E361002A40F0A2802C60CD
:10737000CAE75A1C9BF80210D2B291428BF8002047
:1073800004BF00228BF80020182202FB03B32A68F6
:1073900019799C68022974D003297ED0012918D15B
:1073A000217CB1B9DA6862601A69A2605A699B6986
:1073B000A361604BE2601B78002BC0D06160BEE728
:1073C0009C4200F090809946DB69002BF8D10023A5
:1073D00023749BF800309BF801209A42C9D12B6896
:1073E0002FB9009A934202D1B8F1000F43D0002B7D
:1073F00041D0D3F800A0504D4C4BD5F804751C6813
:10740000DFF844813E1B98F8003026F07F460336B3
:107410009BB94FF48033C5F84433C5F80433474B68
:107420004FF400324FF00109C3F880211A60C5F80B
:107430000090FFF7E3FE88F80090B2452CBF54445B
:10744000A41924F07F44C5F84045D5F80435DB1B6A
:1074500023F07F43E41B033324F07F44A3420AD983
:10746000D5F80435C5F84035FFF7C8FE334B4FF467
:107470000032C3F800212F4B00221A7003B0BDE880
:10748000F08F13469146A0E71174D2690123002AB8
:10749000FAD1002B9DD02A609BE700231946F6E71E
:1074A000D31A23F07F43834234BFC31A00232360DF
:1074B00053E721681368994213D8591A1160E261A1
:1074C00055E7091AD8691A4638B103461868884240
:1074D000F7D3401A1860184613462160E061DC615A
:1074E00012E71346F2E74C450DD1D3692B6053B92F
:1074F0000E4801920121CAF8081003600D4B197063
:10750000FFF77CFE019AE1692368C9F81C1011B1EC
:10751000086803440B602B689A4218BF012756E79E
:10752000B8A60020B9A60020C0A60020BCA6002056
:10753000B0A60020ACA600200010014000E100E051
:10754000A0A50020FEFF7F00ADA60020F8B5194ED3
:10755000194D1A4F4FF40033C6F8803001244FF410
:107560008033C5F84833C5F808336C60FFF746FE32
:10757000AC6000243C60FFF741FE114B1C70114BC6
:107580000B221C809A70104B1C60104B1C70104B0F
:107590004FF480121C70E023C6F8802186F8143363
:1075A0003260C5F8084586F81133D5F804353B60DC
:1075B0002046F8BD00E100E000100140BCA600201C
:1075C000ADA60020A0A50020C0A60020B8A60020DF
:1075D000B9A60020074B9B784BB132B128B10368A4
:1075E000187C20B959745A617047072070470820E9
:1075F000704700BFA0A500202DE9F7431D4FBB78C1
:1076000005460E4690469BB390B304292ED9436994
:1076100073B3437C02A80024012B00F8014D0CBF7A
:107620008946A14600F04AF80DF10600FFF7A8FDD3
:10763000D0B101230370104B4560D3F80435C0E985
:107640000498C0E902369DF806307B709DF807006B
:1076500000F064F824B9094B4FF48012C3F80021FC
:10766000204603B0BDE8F0830424EFE70724F7E7E2
:107670000824F5E7A0A500200010014000E100E08B
:10768000064A92783AB130B1426922B100220274BE
:107690000221FFF78BBD0820704700BFA0A5002086
:1076A000EFF30583C3F308032BB9EFF31480C04352
:1076B00000F00100704701207047000070B50446DB
:1076C000FFF7EEFF012803D01049432004F034FBFC
:1076D000EFF3108672B60E4A9068012398B9936052
:1076E0000C4B0D4DD3F8801029401160C3F8805029
:1076F000D3F8841051604FF0FF32C3F8842020701B
:1077000006B962B670BD2370FAE700BF562E0300BB
:1077100074AF002000E100E0FC06FFBD10B5044698
:10772000FFF7BEFF012803D00949512004F004FBF4
:10773000084B9A685AB154B9EFF3108172B6064AF1
:1077400018681060586850609C6001B962B610BD3E
:10775000562E030074AF002000E100E0024B1B68CE
:107760000021986805F032B9109900201EF0040F2E
:107770001CBFEFF309800AE0EFF308800549064AD1
:10778000884201D8904202D88D464FF00000034B4A
:10779000184700000000012000E00020A17702004F
:1077A0002DE9F347044601F0F5F800F029FF002821
:1077B000FBD1334D334E2888A2693349B76A0004A0
:1077C00040F0010001F096F82888E3680193000476
:1077D000A36800932D49D4E9002340F0010001F093
:1077E000A9F82888E36900930004D4E9042340F051
:1077F0000100274901F092F8F36A980706D5288816
:107800002449000440F0010001F070F8DFF8949082
:10781000DFF894A000264FF0010808FA06F33B4277
:1078200009D059F8262032B128880004514640F08A
:10783000010001F05FF801361A2EEED1390608D5A5
:107840002888104B14495A6B000440F0010001F0E5
:1078500051F83A0408D528880A4B10499A6B00045D
:1078600040F0010001F046F80D4B1B68DB0700D526
:1078700000BE2046FFF748FB02B0BDE8F08700BF1E
:1078800004A3002000ED00E0AA2E0300BF2E030099
:10789000F42E03001C2F03006B2F03008B2F03001B
:1078A000F0ED00E0A82F0300602F030050E8002F48
:1078B0000B4640E8003C9CF0000FF7D110467047A3
:1078C00050E8003F43EA010240E8002C9CF0000F22
:1078D000F6D11046704750E8002F02EA010340E855
:1078E000003C9CF0000FF6D11046704750E8003F76
:1078F00003EB010240E8002C9CF0000FF6D110468B
:10790000704750E8003FA3EB010240E8002C9CF0D8
:10791000000FF6D1104670470121FFF7D1BF0021BB
:10792000FFF7D9BF10B50446002834D003681BB94F
:107930001A49FF2004F000FA636823B917494FF48D
:10794000807004F0F9F9A36823B9144940F20110DA
:1079500004F0F2F9E36823B910494FF4817004F0A0
:10796000EBF9A38A23B90D4940F2031004F0E4F9BE
:10797000D4E9012321689B1ADBB20A60013BDBB228
:10798000FF2B226802D10020107110BD1168481C25
:1079900010600B70F2E70E20F7E700BFD034030051
:1079A00037B5054620B913494FF4927004F0C4F975
:1079B00002A8002400F8014DFFF780FE2A686B68DA
:1079C000116899420ED9481E106011F8014CEB68FD
:1079D000A98A01FB0434AB6811791B1ADBB2994206
:1079E00038BF13719DF80700FFF798FE204603B0DB
:1079F00030BD00BFD034030037B50C46054620B972
:107A0000104940F2471004F097F924B90D494FF49A
:107A1000A47004F091F902A8002300F8013DFFF7DB
:107A20004DFE2A681368591C1160EA68A41AAA8AD4
:107A3000B4FBF2F41C709DF80700FFF76FFE03B073
:107A400030BD00BFD034030038B5084C04F1080342
:107A50000546002818BF1C4623682BB11A6822600F
:107A60005B6828469847F7E738BD00BFCCA60020E2
:107A700020B9054B01225A70FFF7E6BF012802D159
:107A8000014A9070F8E77047C4A6002020B9034B64
:107A900001225A70FFF7D8BF704700BFC4A600206C
:107AA00038B50B4C237883B90A486360A36023611F
:107AB000E36001F057FC054604F05EF808B901F0F8
:107AC00067FC01232370284638BD8525FBE700BFEE
:107AD000C4A60020717A020013B5154C237823B98F
:107AE00014494FF4847004F027F9E36823B911496D
:107AF00040F2091004F020F902A8002300F8013D2B
:107B0000FFF7DCFDE368013BE360E36853B904F091
:107B100033F818B10749792004F00EF901F058FC48
:107B20000023A3709DF80700FFF7F8FD02B010BD19
:107B3000C4A600201F350300012813B509D003D3C4
:107B400003281BD002B010BD134B0122C3F88020C4
:107B5000F8E702A80023114C00F8013DFFF7AEFD45
:107B600023780BB9FFF79CFFE3689DF8070001330A
:107B7000E3600123A370FFF7D1FDE3E7074B1B7818
:107B800023B9074940F2432004F0D6F801F000FC85
:107B9000FFF7A2FFD6E700BF00E100E0C4A6002087
:107BA0001F3503007FB503788DF8043043680293D6
:107BB00083688DF80C30C368049303698DF8143022
:107BC000054A064B01A853F8213052F82110984776
:107BD00007B05DF804FB00BFD8A60020E4A6002093
:107BE000F0B50646944616F8047B194A42F827C0B9
:107BF000184A42F82730184B0C460FCB85B06D461B
:107C000085E80F0023788DF8003063788DF8013017
:107C1000A3788DF80230E3788DF8033023798DF85E
:107C2000053063798DF80630A3680293237B8DF8C5
:107C30000C30BCF1000F637B8DF80D30074A3B46DA
:107C400008BF00222946304602F0FCF905B0F0BD1D
:107C5000E4A60020D8A6002074350300A57B02000E
:107C60001FB503788DF8003003798DF8043043791F
:107C70008DF8053083688DF80630C3688DF80730BD
:107C80000369029343690393054A064B684653F818
:107C9000213052F82110984705B05DF804FB00BF71
:107CA000F0A60020F8A60020024940F2C71004F018
:107CB00043B800BF963503001F2810B5044601D90C
:107CC000FFF7F2FF012303FA04F44FF0A043C3F8D7
:107CD000084510BD024B4FF4807043F00103184774
:107CE000903503002DE9F14F924690F80080354A17
:107CF00042F828A0344A42F828304B7B81460C4693
:107D000073B308684FF0A04500F5E07340F20C62D1
:107D100045F823204B6803F5E073002645F823203F
:107D2000FFF7CAFF6068FFF7C7FF236803F5E0733A
:107D300040F20D6245F82320636803F5E0734FF0CD
:107D4000010B45F82320FFF7C5FF67681F2F01D9F6
:107D5000FFF7AAFFD5F81035FB40DB070ED506BBB1
:107D6000BAF1000F194A434608BF0022214609F123
:107D7000040001B0BDE8F04F02F0D8BC27681F2F07
:107D800001D9FFF791FF0BFA07F7C5F80C75FFF75C
:107D9000A1FF01362068FFF78FFFFFF79BFF092E39
:107DA000D3D165681F2D01D9FFF77EFF4FF0A042A8
:107DB0000123AB40C2F80C35FFF78CFF6068FFF77A
:107DC0007BFFCDE7F8A60020F0A60020617C020032
:107DD00010B5044618B90649312003F0ADFFA2687A
:107DE0002AB163692168206998470023A36010BD08
:107DF000D83503000EB433B5059D044618B91249B1
:107E0000422003F099FF63691BB90F49432003F037
:107E100093FF23681BB90C49442003F08DFF63686E
:107E20001BB90949452003F087FF3DB102AA06AB03
:107E300042F8043D2946204600F06EF802B0BDE845
:107E4000304003B0704700BFD8350300826830B4BB
:107E50000468551C8560A154D0E901329A4202D3CE
:107E600030BCFFF7B5BF30BC704700002DE9F84FBC
:107E70009946DDE90A431746824688460A460126A6
:107E8000BA420FD24E4538BF4E4613F0010B01D116
:107E900064B900240125B9F1010F1AD909F1FF399C
:107EA0007D43F8E7B2FBF7F20136E9E79B070ED511
:107EB000B9F1000F0CBF30252025A642EAD2013CC3
:107EC00029465046FFF7C2FF002CF6D1E1E72025F6
:107ED000F3E7B8FBF5F39F42E2D9DFF83890B8FB3F
:107EE000F5F3504619F8031005FB1388FFF7AEFFB2
:107EF000B5FBF7F5002DF2D1BBF1000F02D00CB1AC
:107F0000A64201D3BDE8F88F20215046013CFFF77F
:107F10009DFFF4E71D3603002DE9F74F0E4690460E
:107F2000054620B9AC494FF49F7003F005FF6B691B
:107F300023B9A9494FF4A07003F0FEFE2B6823B9C2
:107F4000A54940F2411003F0F7FE6B6823B9A2493E
:107F50004FF4A17003F0F0FE002E00F0398116F806
:107F6000011B002958D0252940F0D180002702E0CC
:107F700047F001071646324612F8013B2D2BF7D089
:107F8000302B04D02B2B05D147F00407F2E747F044
:107F90000207EFE700242A2B06F101021BD1D8F8D3
:107FA0000030191D1B68C8F800101C4416463378B1
:107FB0002E2B1CD101364FF0000A314611F8012B4F
:107FC000A2F13000092814D80A2303FB0A23A3F1E5
:107FD000300A0E46F1E712F8013CA3F130010929FD
:107FE000E5D80A2101FB0434303C1646D3E74FF0B4
:107FF000000A324612F8011B01F0FB006828164601
:10800000F8D0692916D054D8582970D00ED825290F
:108010007DD03378002BA2D12B7B002B00F0D880B1
:10802000284603B0BDE8F04FFFF7D2BE632968D001
:108030006429EED1D8F80020D2F80090111D89EA09
:10804000E972C8F80010A2EBE9724FF0010B092A9F
:1080500061DCD34538BFD3462CB1B9F1000F01DB49
:10806000790700D5013CBA0702D5BAF1000F04D058
:10807000FB0702D4002C54D10024B9F1000F58DAC8
:10808000C9F100092D212846FFF7E0FE07F00302A1
:10809000022A05D1BAF1000F02D1002C4DD10024E3
:1080A000CDE9004753460A2249462846FFF7DEFE3F
:1080B000AFE7732954D016D87029AAD1D8F8003068
:1080C0001A1DC8F80020302128461C68FFF7BEFEA4
:1080D00078212846FFF7BAFE00220823CDE90032B6
:1080E00021461022E1E775292FD0782991D1D8F8BF
:1080F00000100A1DC8F80020CDE9004753461022A1
:108100002CE0D8F800301A1D1978C8F8002028464D
:10811000FFF79CFE7DE70A230BF1010B92FBF3F2C4
:1081200095E7A345A9D220212846013CFFF78EFE02
:10813000A0E77807AAD52B21A5E7A345B0D2302127
:108140002846013CFFF782FEA7E7D8F80010CDE9EA
:1081500000470A1DC8F8002053460A220968A4E710
:10816000D8F800301A1DC8F80020F907D3F800909D
:1081700012D54F46A7EB090B17F8011B41B95C4517
:108180007FF647AF20212846013CFFF75FFEF6E768
:108190002846FFF75BFEEDE7B9F1000F16D0484621
:1081A00004F04EFD0746BC420AD809F1FF3919F820
:1081B000011F00293FF42DAF2846FFF747FEF6E7E1
:1081C00020212846013CFFF741FEECE74F46EAE755
:1081D00003B0BDE8F08F00BF2D3603002DE9F0415C
:1081E00008B10368C3B90E4E0E4B14229B1B00242A
:1081F000B3FBF2F3374602FB03F5A54201D10020A1
:1082000008E03B5930190BB91434F6E7DB6998479D
:108210000028F9D0BDE8F081DB69BDE8F0411847DE
:1082200020A3002020A300207047000007B5044BC6
:108230000093044A402300F032F803B05DF804FBD9
:108240004982020001A700202DE9F843894614461F
:10825000B2B10F4B0F4E0325002743F00108224611
:1082600009EB07010020FEF721FF0744241A48B953
:1082700033782BB14FF47A40C047013D02D13570BD
:10828000BDE8F88301233370002CE8D1F8E700BF84
:108290009036030000A700207047FEF759BFF0B5E5
:1082A00095B01C46164608460D4600F026FD1A9B62
:1082B0000D93CDE9086400242346082205A9284629
:1082C0000A948DF82C400C9400F031FD079B02932A
:1082D000BDF81830ADF80C30BDF81A30ADF80E30DE
:1082E0009DF814308DF8114003F00302012A1DD1CE
:1082F000BDF81440059EC3F3C203C4F383148DF884
:108300001030A20008230EA9284600F010FDC6F385
:10831000952608AB0093224602AB0EA9304600F02A
:10832000A7FB284600F0EDFC15B0F0BD022AF8D1FD
:10833000BDF81640C3F3C203A4098DF81030082716
:10834000082C264628BF08263B4632460EA928465A
:1083500000F0EDFCA41B08AB02AA31460EA837447E
:1083600000F0EAFB002CEBD1DBE7000008B5FFF7DB
:1083700094FF0421064800F0EBFA002803DA0549CF
:10838000412003F0D9FC024B01225A7208BD00BF04
:10839000E8980020A436030008B5037813F0030F13
:1083A00003F0040202D012B9104608BDDAB103F09E
:1083B0000303012B07D0022B0ED00E494FF4A470FB
:1083C00003F0BAFC06E00A6800880232C0F38310AA
:1083D00002440A600120E8E70B684288023303EB9D
:1083E00092130B60F6E70B684288013303EB92139C
:1083F0000288F4E70F3703002DE9F04F89B00646F5
:10840000871C08A8484C009200230D4600F8113D37
:10841000FFF754F923682B60D4E901231344226841
:1084200001339B1A04F21C4804F5836B04F21449CF
:10843000BB421AD3009A0023002A6DD0012262F3B6
:10844000010343F0040366F389132168A2689DF8D1
:108450000F000A4003320F4444F822302760FFF730
:108460005DF9012009B0BDE8F08F01214046FFF71A
:108470003DFA5846FFF750FA0DF1200A4846FFF73B
:108480004BFA60684AF8100DA5682840033004EBE9
:1084900080005146FFF780FF02460498002AF4D17D
:1084A00005EA000304EB8303811CDB6805930130BC
:1084B000054004EB850503F00303012B0491ED68EF
:1084C00023D0022B08D0194901924FF4C27003F057
:1084D00033FC019A154607E0BDF816309B090333BB
:1084E0002D0C01EB930304934846FFF718FA08B1EB
:1084F000049B636029464046FFF7F8F9D4E901235D
:108500001344226801339B1A92E7BDF81430C3F379
:1085100083132D0C0B44E6E7022262F3010343F0C0
:10852000040366F39F5390E714A800200F3703005D
:1085300008B50F4B0F48FF229A600022C3F8182499
:10854000C3E90022C3F81424012283F8202400F098
:108550008DFB38B9084A094B09499B1ADB080246CA
:108560009A4200D108BD21F822200132F8E700BF6D
:1085700014A80020A448030004480300A4480300F2
:10858000D0A2002030B50B4C79B10B4A0B49121B1D
:10859000D20800239A4201D1002030BD01EB8305AF
:1085A0006D88854202D00133F4E7034654F8330066
:1085B000F3E700BF04480300A4480300D0A2002052
:1085C000094B013903EBC000032909D8DFE801F0AA
:1085D0000A0204060420704700797047407970470A
:1085E000002070470220704704480300034BD3E982
:1085F0000030C31A58425841704700BF14A80020E9
:108600002DE9F04387B0FFF7F1FF0746002840F05F
:10861000F5807B4DC5F81804BFF34F8F6868AC68D0
:108620000DF1180848F8100D2040033005EB8000CC
:108630004146FFF7B1FE029B064600285FD104EADF
:108640000302991C013305EB8202234005EB8303EF
:10865000D268DB68049302F00303022B03920291B9
:1086600062D1BDF80E3067484FEA9318B8F1500F49
:10867000C14628BF4FF0500969F38F1309F1080173
:10868000ADF80E3000F00AFB0746002800F0A48089
:1086900000F033FB334603A90822384600F040FBC4
:1086A000029924EA01060136B600B14535D95FFAD0
:1086B00089F97EB3F6B2A9EB0609214003315FFACE
:1086C00089F4B146504E05EB810108234A463846ED
:1086D00000F026FB36B109F1080322463146384640
:1086E00000F01EFB029B08F1030803EB98030293C2
:1086F000D5F81834002B4AD1D5F8104458E02A6830
:108700009A4204D86A60384607B0BDE8F08304EAAC
:1087100003008AE73C493446D7E721400331082368
:108720004A4605EB8101DAE7012B55D1BDF80C3043
:108730003448C3F38311062928BF062161F3891346
:1087400002318900ADF80C3000F0A8FA0746002885
:1087500042D000F0D2FA3346082203A9384600F08E
:10876000DFFABDF80C20C2F38312B31C96424FEA25
:108770008303BDD202994A1C21400331029205EBCA
:1087800081010422384600F0CBFA0136E9E7384689
:1087900000F0B7FAFFF72AFF80F00100C7B2B2E796
:1087A000637A23B1236839461B682046984764687A
:1087B000002CF5D1384600F0A4FA06A800F8114DB7
:1087C000FEF77CFFD5F818340BB9029B6B609DF85F
:1087D0000700FEF7A3FFDDE7D5F8104444B90B4BC3
:1087E0000B491888000440F0020000F07FF8D1E740
:1087F000236820469B6898476468EFE7002782E774
:1088000014A80020A448030020A80020F8A20020FB
:10881000723703002DE9F74F2F4C80460F469146E3
:1088200001A9012218469B46D4F808A0FFF7E4FDF1
:1088300000283DD0019D0026A91C5E4506EB0102E3
:1088400040D100212548FFF731F880F3100B244B6D
:10885000244A4FEA18499B1AB9EBD30F04D3224993
:1088600040F2A91003F068FA6B1C03EA0A0304EB58
:10887000830349EA0B42DA6005EA0A030333012164
:1088800014F8232068F3C50204F8232034F82320C9
:1088900066F3891224F8232054F8232067F39F22DB
:1088A00044F8232061F301026FF3820204F82320CD
:1088B00094F820341BB1FFF7A3FE0028FBD103B0CE
:1088C000BDE8F08F0AEA020204EB820259F8263072
:1088D000D3600136B1E700BF14A8002030AC0020FF
:1088E000A4480300044803000F37030000231A467E
:1088F000FFF790BF13B502AC012344F8042D2246C4
:10890000FFF788FF02B010BD07B5CDE900230223B1
:108910006A46FFF77FFF03B05DF804FB1FB5CDE9A2
:108920000123069B039301AA0323FFF773FF05B0FE
:108930005DF804FB1FB5CDE90023069B0293079B5E
:1089400003936A460423FFF765FF05B05DF804FB57
:108950000F4A30B5D2F810440023214641B90372C2
:10896000D2F810444CB9C2F810044160184630BD2A
:108970000D7A9D4205D04968F0E762684260606008
:10898000F4E701330A2BE8D14FF0FF33EEE700BFE5
:1089900014A80020084A38B50123D2F8104482F800
:1089A00020341D4604B938BD2368657220465B68D3
:1089B00098476468F6E700BF14A80020037A052BE7
:1089C00010B50C460FD0437A23B1084A0849204617
:1089D000FFF710FA07492046FFF70CFA2046BDE8DA
:1089E0001040FFF7F5B9002AF8D0F3E7CF370300BE
:1089F000D4370300F4370300C38873B504460D462B
:108A000033B1144A00921449144A2846FFF7F2F988
:108A1000217A05291CD0637A4BB1A088FFF7D0FDDD
:108A20000F4B104953F820202846FFF7E3F9227A2C
:108A30000D4BA08853F822600021FFF7A3FD0B49DE
:108A400003463246284602B0BDE87040FFF7D2B96F
:108A500002B070BDCF370300DF370300D737030004
:108A60009C370300D437030004380300F7370300B2
:108A70002DE9F04385B01F460C9D002306460C46A9
:108A8000904695F80C902B7329463846FFF7B4FFB3
:108A9000B8F1060F09D8DFE808F00412181F2833D0
:108AA000400031462846FFF7A5F9002229463846FE
:108AB000FFF784FF85F80C9005B0BDE8F0832268CD
:108AC00031462846FFF796F9EFE7D4E9002331460F
:108AD0002846FFF78FF9E8E7A36800933146D4E909
:108AE00000232846FFF786F9DFE7E3680193A368D0
:108AF00000933146D4E900232846FFF77BF9D4E7F9
:108B000023690293E3680193A36800933146D4E993
:108B100000232846FFF76EF9C7E7636903932369CB
:108B20000293E3680193A36800933146D4E90023DC
:108B30002846FFF75FF9B8E708292DE9F84F804686
:108B40000E4617461C4638D8002593F80C901D7326
:108B500019461046FFF750FFDFF880A0DFF880B01D
:108B6000AE422CD918F8052059462046FFF742F9A5
:108B70000135082DF4D11749DFF868B02046FFF71A
:108B800039F90025AE421FD918F805A003F07AFD87
:108B900050445946437813F0970F14BF52462E2283
:108BA0002046FFF727F90135082DEBD10122214698
:108BB0003846FFF703FF84F80C90BDE8F88F514664
:108BC0002046FFF717F9D3E703492046FFF712F9CC
:108BD000E9E700BFCA370300C8370300C637030000
:108BE000C0370300CC3703002DE9F84FB0F806A0DA
:108BF0009DF82890174603321C1D13444279B4FB9C
:108C0000FAF55344B3FBFAF3DBB29A4206468846C0
:108C10000AFB154403D21449BA2003F08DF83DB97C
:108C2000AAEB040BBB4528BFBB4627B9BDE8F88FAC
:108C30003668013DF3E7043408EB050034445A4636
:108C4000B9F1000F0DD02146A7EB0B0703F070FD23
:108C5000BA455D443668D3464FF0000428BFBB4692
:108C6000E3E701462046EFE763380300FEF75ABE0C
:108C7000F8B546790146721E0546002393422D68D9
:108C800003D30024A64202D8F8BD0133F6E70F68EB
:108C90002846FEF7B1FE01343946F3E72DE9F843E3
:108CA000868ACD1C0746FEF77BFE043E354404460B
:108CB000B5FBF6F5F0B14FF48073EDB28380C6805A
:108CC000013D076081464FF00008A84512D23846A2
:108CD000FEF766FE064648B163790133637108F119
:108CE0000108C9F8000007608146EEE72046FFF75B
:108CF000BFFF34462046BDE8F88301210430FEF76B
:108D0000F5BD10B5012104460430FEF7FAFD10F060
:108D1000FF0F04D12046BDE81040FFF7A9BF10BDEA
:108D200013B500240094FFF75FFF02B010BD13B528
:108D300001240094FFF758FF02B010BD02681368C9
:108D40005268934291BFD01A80680130801888BF62
:108D5000C01A704738B50C46054618B90449772043
:108D600002F0EAFFAB68A3428CBF601C002038BD54
:108D7000C838030038B5044618B907498A2002F0FC
:108D8000DBFF236820461D685968FFF7E3FF431B9C
:108D90005842584138BD00BFC83803002DE9F3419F
:108DA0000D46044618B92E49952002F0C5FF1DB99D
:108DB0002B49962002F0C0FF02A8002300F8013DD5
:108DC000FEF77CFC2046FFF7D5FF804610B1237CE0
:108DD000002B3BD1276820467E687968FFF7BAFFF1
:108DE0007860B8F1000F05D0276820463968FFF792
:108DF000B1FF3860E2686068531E072B20D8DFE8B7
:108E000003F004101F141F1F1F182B7883552046D2
:108E1000FFF794FF23689A68824200D2986000248A
:108E200015E02B8820F81630F1E72B6840F8263043
:108E3000EDE7D5E9002300EBC600C0E90023E6E733
:108E4000294606FB020003F073FCE0E704249DF8CA
:108E50000700FEF763FC204602B0BDE8F08100BFCA
:108E6000C838030010B5044620B9064940F20A206C
:108E700002F062FF236818685B68C31A58425841C1
:108E800010BD00BFC83803002DE9F3410C469046E1
:108E9000054618B92549D92002F04EFF1CB92349CF
:108EA000DA2002F049FF02A8002300F8013DFEF796
:108EB00005FC2846FFF7D6FF002834D12F683E680E
:108EC000B8F1000F04D139682846FFF743FF386036
:108ED000EA686968531E072B1FD8DFE803F0040F08
:108EE0001E131E1E1E178B5D237000249DF80700A5
:108EF000FEF714FC204602B0BDE8F08131F81630D0
:108F00002380F2E751F826302360EEE701EBC6013B
:108F1000D1E90023C4E90023E7E706FB021120465C
:108F200003F006FCE1E70524E0E700BFC8380300D2
:108F300038B50D46044618B90949502002F0FCFE28
:108F40001DB90749512002F0F7FE2B686A6863607B
:108F5000934208BF0023256008BF636038BD00BF8F
:108F60001539030010B5044618B90B49632002F007
:108F7000E3FE23681BB90849642002F0DDFE636844
:108F800043B12268916852680B449342636004BF06
:108F90000023636010BD00BF153903000D4930B5D3
:108FA000A1F594720225914201D800200EE08B1A9F
:108FB000DB1093FBF5F302EBC30452F8333083422A
:108FC00005D802D204F10802EDE7606830BD214601
:108FD000E9E700BFB83A030008B5FFF7DFFF024B2F
:108FE000002808BF184608BD7D390300C0B2002321
:108FF00048700B707047000070B50D46044618B9F4
:109000000849712002F098FE23681A6812683AB184
:109010001A681B6851681B682846BDE870401847ED
:1090200070BD00BF723E0300F0B5044687B018B9AA
:109030002D49372002F080FE2368187E1A68C0B2DE
:1090400007B296684FEAC70C06EB0C0256F8376079
:1090500051791779927912F0010F4FEA510501F019
:10906000010139D0002937D1D3F800E09EF80CE097
:109070000130704530DAD3F800E00CF10800DEF87A
:1090800008C084449CF805C0B5EB5C0F24D11A6875
:1090900091680A1851F800C0187E517992F804E0DE
:1090A0009279013011F0010F4FEA4212C0B20CBFA9
:1090B0000321022102F0200218768DF8041004F139
:1090C0000C0001A98DF80550CDE9027ECDE9046CB4
:1090D00001F086FC07B0F0BD52014FF0000C02F029
:1090E0002002E646E9E700BF723E03002DE9F74F94
:1090F0000E46044618B92949872002F01DFE25684E
:10910000DFF89CB04FF0000802A800F8018DFEF7D0
:10911000D5FA16B923681B6843B90022294660684E
:10912000FFF7B2FE90B3C5F8008000269DF8070057
:10913000FEF7F4FA7EB32B681B694BBB2F1D102280
:109140003946686903F0C2FAA8B104F10C0A504626
:1091500004F1080901F0E8FB23465A46394648461F
:10916000FEF7C0FD18B10D49B42002F0E5FD5046F0
:1091700001F092FB6F6185F818802046FFF754FFDD
:10918000014640B12046FFF737FFBDE70126CDE796
:109190002B681F69D3E703B0BDE8F08F723E030070
:1091A000A591020038B50C46054618B91249D220DF
:1091B00002F0C2FD23681B681BB90F49D82002F0DA
:1091C000BBFD297871B92268137E10680133007BDA
:1091D000DBB2984207D913762046FFF725FF0146F8
:1091E00008B938BD03212046FFF706FF20460121BC
:1091F000BDE83840FFF77ABF723E0300F8B50D4670
:10920000044620B918494FF4847002F095FD636854
:1092100023B9154940F2091002F08EFD63689B687E
:1092200023B911494FF4857002F086FD25B90E4926
:1092300040F20B1002F080FD23460C4A294604F14F
:109240000800FEF74FFD064660B904F10C0001F07E
:1092500023FB276895E80F003C4644F8046B84E83C
:109260000F007C613046F8BD723E0300A5910200FC
:1092700037B50546019120B9144940F22D1002F08E
:109280005BFD019B23B911494FF4977002F054FD27
:10929000019B9B6823B90D4940F22F1002F04CFD51
:1092A000019B1B7B23B909494FF4987002F044FDE0
:1092B00001A96868FFF772FD044618B901462846FF
:1092C000FFF714FF204603B030BD00BF723E03001D
:1092D0002DE9F04186B0884617461E460C9C05468F
:1092E00020B9194940F24F1002F026FD27B916495E
:1092F0004FF4A87002F020FD26B9134940F2511036
:1093000002F01AFD0023ADF8003001238DF8003083
:1093100001A90E4B01932846CDF808D003978DF88C
:109320001060CDF81480FFF7A3FF20B106B0BDE8B0
:10933000F08104B1A0479DF80030002BF9D19DF8D1
:109340000100C0B2F2E700BF723E0300ED8F0200E1
:1093500000F18040002382B0036003680193019B09
:1093600002B0704710B5044618B90749A22002F0B0
:10937000E3FC064B187920B901221C601A71587160
:1093800010BD8520FCE700BFC53E030038AC0020BF
:1093900008B50C4B1B791BB90B49BB2002F0CCFC68
:1093A0000A4B1A68D20706D4E02283F80023012270
:1093B000C3F880211A604FF080430122C3F81825BA
:1093C00008BD00BF38AC0020C53E030000E100E04E
:1093D00008B5084B1B791BB90749F22002F0ACFC19
:1093E000064B01221A604FF08042D2F81834DB039A
:1093F000FBD408BD38AC0020C53E03000C00004083
:10940000124B1B6810B573B14FF48070FFF7A0FFCB
:109410004FF080430122C3F808230D4B587910B94F
:109420005A711B6898470B4B1B6873B14FF48270DD
:10943000FFF78EFF4FF080430222C3F80823044B4E
:1094400001201B68BDE81040184710BD0001004016
:1094500038AC00200401004000F1804000F5C0401D
:10946000002382B0036003680193019B02B0704740
:10947000054B4FF0FF32072843F8202084BF1B180C
:1094800083F84820704700BF40AC0020024940F2FA
:10949000C71002F051BC00BF963503001F2838B535
:1094A00004460D4601D9FFF7F1FFA00000F1A040EE
:1094B000D0F8003723F44033C0F80037D0F8003735
:1094C00043EA0543C0F8003738BD0000164991F85B
:1094D000583010B52BBBFF20CA180133202B82F85F
:1094E0003000F9D10024E0B20134FFF7C1FF0C2CA9
:1094F000F9D10E4B0022E0204A6583F80603402094
:10950000C3F8800118604FF4BE70FFF7A5FF084B49
:109510004FF00040C3F80403012381F8583010468F
:1095200010BD0820FCE700BF40AC002000E100E0D7
:1095300000600040034B93F85800003018BF012032
:10954000704700BF40AC00201F2870B504460D4690
:1095500004D9414940F22D1002F0EEFB3F4E96F83F
:109560005830012B04D03C494FF4977002F0E4FBD3
:1095700025B9394940F22F1002F0DEFB331993F977
:109580003020013265D1AA78002A54D0002356F841
:10959000231001314FEA830248D1311902F1804290
:1095A00002F5C04281F830300021D2F8100546F8AB
:1095B00023102B78697820F498101B04090520F4F7
:1095C000F85001F4801103F44033C2F810050B4346
:1095D0002102D2F8100501F4F8510B430343C2F8FD
:1095E00010356B78012B4FF0010528D11F2C01D9C4
:1095F000FFF74CFF4FF0A043A540C3F808551F2CC0
:1096000001D9FFF743FF04F5E0724FF0A0430321B7
:1096100043F82210E2081249012304F0070403FA78
:1096200004F48B5C1C438C54002003E00133082BB2
:10963000ADD1042070BDFE2283F83020D1E71F2C6D
:1096400001D9FFF723FF4FF0A043A540C3F80C5505
:10965000D5E70820EEE700BF173F030040AC00202D
:1096600094AC00201F2838B5054604D9124940F2B1
:10967000791002F061FB114C621992F9302001322D
:1096800004D10D494FF4BD7002F056FB631993F8F5
:109690003030072B04D8084940F27B1002F04CFB15
:1096A0001F2D01D9FFF7F2FE012303FA05F54FF054
:1096B000A043C3F8085538BD173F030040AC002055
:1096C0001F2838B5054604D9124940F2831002F02C
:1096D00033FB114C621992F93020013204D10D494B
:1096E0004FF4C27002F028FB631993F83030072B57
:1096F00004D8084940F2851002F01EFB1F2D01D945
:10970000FFF7C4FE012303FA05F54FF0A043C3F8A9
:109710000C5538BD173F030040AC00202DE9F04F39
:1097200087B000245B4A5C4E5C4D039401211368B2
:10973000A2F5C040012B80B206D1D6F804330B420B
:1097400002D0FFF789FE0C430432AA424FEA4101DE
:10975000EDD1534B1B68012B0AD14FF4BE70FFF7BC
:109760007BFE4FF0A04344F00044D3F81035039340
:1097700014F0FF0F1AD04B4F00250126344210D0B1
:10978000AB0003F1804303F5C043D3F81005D3F8D1
:10979000101557F82530C0F30420C1F3014103B17F
:1097A00098470135082D4FEA4606E7D1002C6EDABE
:1097B00000224FF0FF33CDE904233A4F4FF0000A67
:1097C00056464FF0A04907EB0A0393F95040631C3B
:1097D00046D0E4B2012224F0C00504F0070B02FADF
:1097E0000BFBEB0806AAD11811F8042C12EA0B0F98
:1097F00036D07A19A40992F9302057F82280B8F1AE
:10980000000F0AD1032C2BD10DF1100C1CF8030012
:1098100040EA0B000CF8030001E0032CF4D01F2DEC
:1098200003D90191FFF732FE019911F80C1C05F5DF
:10983000E07311EA0B0F59F82330C3F3014320D032
:10984000022B0DD1032C05D121462846FFF726FE19
:109850000136F6B2B8F1000F02D021462846C047C3
:109860000AF1010ABAF1040FADD186B14FF0A0435D
:10987000039AD3F810359A4209D00393049B0593B9
:109880009CE7032BECD1032CE4D10221DDE707B0E8
:10989000BDE8F08F006100400060004020610040A2
:1098A0007C61004040AC002010B5054C22681AB91C
:1098B0000449512002F040FA2368BDE810401847DF
:1098C0009CAC00206B3F030037B50D4630B90F4903
:1098D000772002F031FA002003B030BD0C4B9842E3
:1098E000F9D102A8002300F8013DFDF7E7FE094B7E
:1098F0001C7914B901221D601A719DF80700FDF74B
:109900000DFF002CE7D01120E6E700BF6B3F0300FE
:10991000002000409CAC002018B906499B2002F0B2
:109920000BBA054B984201BF044B00221A601A7112
:10993000704700BF6B3F0300002000409CAC00203C
:109940000023435082B043580193019B02B07047FB
:10995000D0F8103170B505460C4653B14FF48871FC
:10996000FFF7EEFF63795A0703D523680BB1012097
:109970009847D5F814315BB14FF48A712846FFF748
:10998000DFFF63791B0703D523680BB102209847DB
:10999000D5F81C315BB128464FF48E71FFF7D0FF2C
:1099A000607910F0100002D1236803B19847D5F810
:1099B000043163B14FF482712846FFF7C1FF0123E0
:1099C000237123681BB10320BDE87040184770BDA8
:1099D0002DE9F04104460D46164622B91D4940F2D4
:1099E000722002F0A9F9376827B91A4940F27F209E
:1099F00002F0A2F904EB4518C8F82075B78827B91A
:109A000014494FF4227002F097F93B0404D5114930
:109A100040F2892002F090F9C8F82475B768B7F1D0
:109A2000807F04D30B4940F2922002F085F96D014A
:109A3000F6686319B6F1807FC3F8287504D3054929
:109A400040F29B2002F078F92C44C4F82C65BDE864
:109A5000F08100BFBD3F030038B51D4602230B71E6
:109A60000B684A7104467BB112F0040F14BF9221B7
:109A70008221100748BF41F02001D306236848BF68
:109A800021F08001C3F8001320684FF48271FFF7C2
:109A900057FF206812F0800F05BF01234351401982
:109AA000002038BD2DE9F04F054687B016460F4619
:109AB00019B97049802002F03FF995F804906E4C76
:109AC0004FEAC9030093E3181B7903F0FF01002B51
:109AD00040F0CD8044F83960DFF8ACA18B4617F830
:109AE0000B10FF2900F0BD8002AB21F0800611F0C1
:109AF000800F43F82B604FF0010800F0A4801F2E68
:109B000004D9514640F2C71002F016F94FF0A041B7
:109B100008FA06F0C1F808051F2E04D9514640F294
:109B2000C71002F009F906F5E0734FF0A0410320D9
:109B300041F823000BF1010BBBF1040FCFD1D5F895
:109B40000080029BC8F86035039BC8F86435B7F8FD
:109B500008A0049BC8F86835059BC8F86C351AF452
:109B6000004F4FF00103C8F8003597F806B07B7935
:109B700006D04249019340F2672002F0DDF8019BD4
:109B8000C8F80C352868C8F804B5C8F808A57B895A
:109B9000C0F810350023C0F800324FF48E71C0F8C1
:109BA0000033FFF7CDFE4FF488712868FFF7C8FE39
:109BB0004FF48A712868FFF7C3FE4FF4827128685A
:109BC000FFF7BEFE54F83930ABB32B683F794FEA4C
:109BD0001339BB1E012B4FFA89F806D97B1F022BC4
:109BE00003D927496B2002F0A7F8B8F1000FACBFEA
:109BF00008F16043234B4FEA4717B8BF09F00F093C
:109C0000FFB2AABF03F5614303F8097083F800733C
:109C10002B681B0B03F01F0143F3C40323F06043C5
:109C200023F0030303F1604303F5614301228A40FB
:109C3000C3F880211A60009B1C440123237100207B
:109C400007B0BDE8F08F1F2E04D9514640F2C7106F
:109C500002F072F84FF0A04008FA06F1C0F80C15B7
:109C60005AE702AA4FF0FF3342F82B3062E7082090
:109C7000E6E700BFFE3F0300A4AC0020BD3F0300A9
:109C80004840030014ED00E0963503002DE9F04153
:109C900015461E460279234B03EBC20704463B7967
:109CA000884623B920494FF48D7002F045F825B954
:109CB0001D4940F21B1002F03FF8D8F8003003F0C5
:109CC0006043B3F1005F04D017494FF48E7002F087
:109CD00033F8424600212068FFF77AFE4246012110
:109CE0002068FFF775FE05F00102216802EB5505BB
:109CF000F307C1F8145513D416F0020303D0002A59
:109D000014BF08230423002AC1F80032F2B23946F6
:109D1000204614BF0C230823BDE8F041FFF79CBE8A
:109D20001023F0E7A4AC0020FE3F030001490248E5
:109D3000FFF70EBEA4AC002000C00140014902485C
:109D4000FFF706BEACAC00200010024001490248FB
:109D5000FFF7FEBDB4AC00200020024000F18040BF
:109D600000F5E040002382B0036003680193019B8B
:109D700002B07047F0B5514B514C1B6885B0DBB158
:109D80004FF4827094F82E20FFF7E8FF12B194F898
:109D90002F30A3B1636802932389ADF80C30E368D8
:109DA00000218DF80410002B44D12374236801A8EE
:109DB0009847002384F82F3094F82E3003B3414B9A
:109DC0001B68EBB14FF48070FFF7C8FF94F82D20AB
:109DD000638B91B28B4238D95B1A21899BB2638322
:109DE000CB1A616801EB4301374BC3F82C16C3F85B
:109DF00030264FF48270FFF7B1FF344B01221A6016
:109E0000334B1B685BB14FF48870FFF7A7FF00234B
:109E100004A82374022300F80C3D236898472D4BB7
:109E20001B6813B34FF48A70FFF798FF0023237465
:109E300005B0F0BD208B608363602081E160002A63
:109E4000B4D1214B01221A60B0E7D2D1E3680121DD
:109E500084F82F103BB1002161831B49C1F82C36D7
:109E6000C1F83026C5E76383C3E766694FF0004752
:109E70000125002EDCD0B6FA86F227FA02F346322C
:109E8000920026EA030602F1804303F5E0431B68D3
:109E9000002BEED01046FFF761FFA2F58C72D308BD
:109EA00082F00402C2F380028DF808308DF804506D
:109EB0008DF80920236801A89847DAE7047100406B
:109EC000BCAC0020007100400070004004700040F5
:109ED000107100401471004070B50E46054618B967
:109EE0002849D62001F028FF1EB92649D72001F0C5
:109EF00023FF254C94F82C30002B41D1234A29789C
:109F00002660C2F8F0156978C2F8F415E97884F88B
:109F10002E102374012184F82D30636184F82F30D2
:109F20006FF0004384F82C104FF48270C2F80833AD
:109F3000FFF714FF4FF48070FFF710FFAD78AB1EF2
:109F4000012B06D96B1F022B03D911496B2001F09D
:109F5000F3FE104B6D01EDB283F807538022C3F876
:109F6000802194F82E101A60084B0222C3F80423B3
:109F7000012209B1C3F80423C3F80025002070BDF5
:109F80000820FCE78F400300BCAC002000700040BC
:109F90004840030000E100E0024940F2C71001F030
:109FA000CBBE00BF963503001F2810B5044601D96B
:109FB000FFF7F2FF012303FA04F44FF0A043C3F8C4
:109FC0000C4510BD1F2810B5044601D9FFF7E4FF6A
:109FD000012303FA04F44FF0A043C3F8084510BD71
:109FE0004FF0402313B5D3F818310BB3114B124C7B
:109FF00000221A601B680193019B236823B90F4953
:10A0000040F28E2001F098FEE07FFF2803D0A37F6E
:10A010005BB1FFF7C9FF002363772372D4E90031F6
:10A02000074802B0BDE810401847FFF7CBFFF2E742
:10A0300002B010BD18410040ECAC0020E14003002C
:10A04000F4AC00202DE9F74F8146CDE900230C4602
:10A0500019B98349A92001F06FFE99F80460814D78
:10A06000242303FB06FB05EB0B0A9AF81C100029BE
:10A0700040F0F180D9F800807B494046FFF724FC8E
:10A080000746002840F0E980009B45F80B30019B13
:10A09000CAF80430237B2078012B00F2CA80FFF736
:10A0A00083FF94F800A0BAF11F0F01D9FFF774FFE6
:10A0B0000AF5E07A4FF0A043012243F82A2094F8F1
:10A0C00001A0BAF1FF0F00F0B7805046FFF76CFF18
:10A0D000BAF11F0FD34601D9FFF75EFF0AF5E07A08
:10A0E0004FF0A043032243F82A20A378FF2B00F06F
:10A0F000A6801F2B9A4603D90093FFF74DFF009BC4
:10A1000003F5E0734FF0A042042142F8231099F8C0
:10A110000430242202FB0353A27883F82020E07845
:10A12000FF281CD02379002B00F08C80FFF73CFF28
:10A13000E3781F2B03D90093FFF72EFF009B03F555
:10A14000E0734FF0A042032142F8231099F8043045
:10A15000242202FB0353E278DA7722799A77237874
:10A16000C8F80835A368C8F80CB5C8F810A5C8F831
:10A170002435637B227B003318BF0123022A64D07D
:10A18000032A65D0012A01D143F00203C8F85435EF
:10A19000A379C8F8C03524237343EB5813B1402288
:10A1A000C8F804230722C8F80025BBB3D9F800304B
:10A1B00064794FEA133AA31E012B4FFA8AF806D9A5
:10A1C000631F022B03D929496B2001F0B5FDB8F1BB
:10A1D000000FACBF08F16043254B4FEA4414B8BFF1
:10A1E0000AF00F0AE4B2AABF03F5614303F80A407C
:10A1F00083F80043D9F800301B0B03F01F0143F331
:10A20000C40323F0604323F0030303F1604303F529
:10A21000614301228A40C3F880211A60242303FB92
:10A22000065500236B7701232B77384603B0BDE832
:10A23000F08FFFF7C7FE34E74FF0FF3B55E74FF0D5
:10A24000FF3A64E7FFF7BEFE72E743F004039DE7C1
:10A2500043F006039AE70827E7E71127E5E700BF81
:10A26000E1400300ECAC0020E19F02004840030005
:10A2700014ED00E02DE9F341574F0679242303FB49
:10A28000067380461B7F0D46144623B953494FF48D
:10A29000097001F051FD2B6833B96B6823B14F4948
:10A2A00040F2252001F048FDAB6833B9EB6823B1DB
:10A2B0004A4940F2262001F03FFD98F804302BB9BE
:10A2C000EB68FF2B02D86B68FF2B04D9434940F29F
:10A2D000292001F031FD24237343FA18517F00290E
:10A2E00078D1FB5823B114F0140F04BF0123537726
:10A2F00095E80F004FF0240C0CFB067C0CF10C0EC3
:10A300008EE80F009CF81F00FF2804D09CF81E3038
:10A31000C3B1FFF757FE296821B101F06043B3F1E3
:10A32000005F06D1AA6882B102F06043B3F1005F1A
:10A330000BD0242303FB067600237377102002B092
:10A34000BDE8F081FFF730FEE5E7D8F80030686837
:10A35000C3F84415C3F84805E968C3F8342500225A
:10A36000C3F83815C3F81821D3F818210192019ABF
:10A3700014F0010218BF0122C3F8502514F00202A4
:10A3800018BF0122C3F8402522075CBF01221A61D1
:10A3900024227243BA5892B9D3F81821002AFBD06C
:10A3A000242303FB0676F07FFF2803D0B47F1CB183
:10A3B000FFF7FAFD0020C2E7FFF704FEFAE714F00A
:10A3C00004004FF0400202D0C3F80823F2E7C3F8BC
:10A3D0000423B4E71120B2E7ECAC0020E140030015
:10A3E0002DE9F743002406460F4600F5A0754FF40B
:10A3F0008038A14604F150002B68800080B26BB118
:10A40000D6F8043308FA04F21A4207D0C5F80090CF
:10A410002B680193019BD7E9003198470134042C44
:10A4200005F10405E6D103B0BDE8F0832DE9F3475B
:10A43000574B0679144602689A4280460D4603D16E
:10A440005449482001F078FC1DB952494A2001F0D6
:10A4500073FC1CB94F494B2001F06EFC4E4F0C238E
:10A4600003FB06731B7A002B40F09080D8F8003075
:10A47000474A93420FD002F5805293420BD002F527
:10A480008052934207D002F58032934203D002F506
:10A490008052934202D1AB78032B03D93D495F2010
:10A4A00001F04AFC0C237343FA18FC506B685360AC
:10A4B00098F80500D8F8002000231C46D9B288423D
:10A4C0005AD8EC78A31E4FEA123A012B4FFA8AF9B8
:10A4D00006D9631F022B03D930496B2001F02CFCF5
:10A4E000B9F1000FAEBF09F160430AF00F032C4A27
:10A4F0004FEA4414E4B2AABF03F56143D45483F88D
:10A500000043D8F80020130B03F01F0043F3C403EB
:10A5100023F0604323F0030303F1604303F5614339
:10A52000012101FA00F0C3F880011860D2F8040597
:10A530006B7820F0030003F003030343C2F80435F3
:10A54000D2F80805AB7820F0030003F003030343BF
:10A55000C2F80835D2F810052B7820F00F0003F070
:10A560000F030343C2F810350C2303FB06760020CB
:10A57000317202B0BDE8F08703F15001013342F8B7
:10A58000214052F821100191019997E70820F0E746
:10A59000008000403141030010AD0020484003001E
:10A5A00014ED00E001490248FFF71ABF10AD00208A
:10A5B0000080004001490248FFF712BF1CAD002097
:10A5C000009000400023435082B043580193019B08
:10A5D00002B07047F0B5504C236887B023B94F499B
:10A5E00040F22D2001F0A8FB4D4AD2F82431154647
:10A5F000A3B14FF492711046FFF7E4FFD2F8043193
:10A6000063B9A368C2F808330223A360A368C2F841
:10A61000043301231362536107B0F0BDD5F8043150
:10A62000002B49D03F4F3E484FF48271FFF7CAFFDD
:10A630000FCF01AE0FC63B68336094F82E307BB16C
:10A64000237B012B0CBFD5F83C25D5F84C25029275
:10A65000022B334B0CBFD3F83C35D3F84C35039366
:10A660004FF4B0712E48FFF7ADFF4FF4AE712C4898
:10A67000FFF7A8FF94F8303013B194F82E303BB1B7
:10A68000274B0022C3F80022A260274AC3F8082300
:10A69000234AD2F8C434C2F8C4349A0736D5012309
:10A6A0008DF8003094F830300BB984F82F30D4E9AD
:10A6B000003168469847AFE74FF4A4711848FFF798
:10A6C00081FF237B83B9174F0FCF01AE0FC63B68C5
:10A6D000336094F83030002BDAD1C5F80032A36033
:10A6E000114BC5F80833D3E74FF40073C5F80032B7
:10A6F00040F20223A36003F1CE73C5F80833A368C8
:10A70000C5F804330123AB602B6285E713F0040323
:10A7100018BF0223C4E700BF28AD00208341030017
:10A720000030004034AD002002029C012DE9F74FBB
:10A730008046934601930C4619B95149982001F07F
:10A74000FBFAD4E900239A4203D14D49992001F044
:10A75000F3FA98F804604B4D342303FB06FA05EB3B
:10A760000A0999F82D20002A40F086804649D8F839
:10A770000000FFF7A9F8074600287FD1019BC9F820
:10A780000430637BC9F8080089F8300089F82F008D
:10A7900089F83230D4F8009045F80AB0B9F11F0FAB
:10A7A00004D93A4940F2C71001F0C6FA4FF0A0436D
:10A7B00009F5E07940F20C6243F82920D4F804A0AE
:10A7C000BAF11F0F994604D9304940F2C71001F081
:10A7D000B3FA0AF5E07A40F20C6349F82A30D4E97A
:10A7E0000012D8F80030C3F80815C3F80C25A26889
:10A7F000C3F8242534227243AA589AB3247B4FEA23
:10A80000133AA31E012B4FFA8AF906D9631F022BB4
:10A8100003D91F496B2001F08FFAB9F1000FAEBFC9
:10A8200009F160430AF00F031A4A4FEA4414E4B2F4
:10A83000AABF03F56143D45483F80043D8F800302D
:10A840001B0B03F01F0143F3C40323F0604323F009
:10A85000030303F1604303F5614301228A40C3F817
:10A8600080211A60342303FB0655012385F82D301F
:10A87000384603B0BDE8F08F0827F9E71127F7E75E
:10A880008341030028AD0020D5A5020096350300C2
:10A890004840030014ED00E070B50C4D04793422FB
:10A8A00002FB0452064692F82D20012A03D00849E3
:10A8B000FA2001F041FA33680622C3F80025342358
:10A8C00003FB0454022384F82D3070BD28AD002012
:10A8D0008341030070B5114D0479342202FB045208
:10A8E000064692F82D2022B90D4940F2051001F0DC
:10A8F00023FA3422336802FB04540021094AA16080
:10A90000C3F80823D3F8002222F4BC52C3F8002273
:10A91000C3F80015012384F82D3070BD28AD002048
:10A920008341030002029C01F8B5294D04793423C8
:10A9300003FB0453064693F82D301BB92549E1204B
:10A9400001F0FAF934236343EB5863B133681B0B0E
:10A950005AB20121520903F01F0301FA03F3203216
:10A960001D4941F822303046FFF7B4FF3068FEF74A
:10A97000D3FF342303FB045393F8323003BB336813
:10A98000D3F808751F2F04D9144940F2C71001F0FD
:10A99000D3F94FF0A04307F5E077022243F82720D0
:10A9A0003268D2F80C751F2F1E4604D90B4940F2AD
:10A9B000C71001F0C1F907F5E077022346F8273008
:10A9C000342303FB0454002384F82D30F8BD00BF6A
:10A9D00028AD00208341030000E100E0963503002C
:10A9E0002DE9F843037904460D4690462BB94B6890
:10A9F000FF2B02D88B68FF2B04D9B4494FF4EC70BD
:10AA000001F09AF92779B24E34237B43F3583BB9CE
:10AA10002B78022B04D1AD494FF4EF7001F08CF983
:10AA200034237B43F3583BB92B78032B04D1A7493C
:10AA300040F2DF1001F080F9EB6803F06043B3F1FE
:10AA4000005F03D010221046BDE8F8832468A14BB4
:10AA5000C4F808334FF0340C0CFB076C9CF82F3013
:10AA60002BB1DCF80830C4F804331122EBE718F0FE
:10AA7000140F0CBF012300238CF82F30A946B9E82E
:10AA80000F000CF10C0EAEE80F00D9F80030CEF834
:10AA90000030C8F300138CF830306B78C4F8883578
:10AAA0004FF482712046FFF78DFD4FF49271FFF74E
:10AAB00089FD18F0010318BF0123C4F8503518F0C0
:10AAC000020318BF0123C4F840352B78032B00F292
:10AAD000DC80DFE803F09CC4800218F0100F04D083
:10AAE0007A494FF4AD7001F027F918F0080F04D03F
:10AAF000764940F25B1001F01FF918F0040F04D002
:10AB000072494FF4AE7001F017F92B6903F06043FE
:10AB1000B3F1005F96D14FF48073EA68C4F8003255
:10AB20006B68C4F844252046C4F848354FF4A87132
:10AB3000FFF748FD4FF4B071FFF744FD4FF4A471E7
:10AB4000FFF740FD01232362A360D4F85031002BAE
:10AB5000FBD04FF4A8712046FFF734FDAB682A699B
:10AB6000C4F84425C4F848355B4A342303FB076323
:10AB70009A604FF482730821002218F0080F04D164
:10AB8000287803281CBF01206050342179437018B5
:10AB9000715800297ED1012523441968002900F04D
:10ABA00086803421D4F8C434C4F8C43401FB076669
:10ABB000002186F82F10002B3FF445AF13F0020F51
:10ABC00048F2012208BF032213F0040F48F20223C7
:10ABD00018BF1A4637E76B68EA68C4F84425C4F81A
:10ABE00048352B6903F06042B2F1005F7FF42AAF71
:10ABF000AA68C4F834354FF48453C4F83825C4F82F
:10AC00000032342303FB076340F20222B0E76B6893
:10AC1000EA68C4F8442518F0200FC4F848354FF00E
:10AC2000340310D003FB07634FF48072C4F8002292
:10AC3000294A9A604FF4A471FFF7C4FC4FF4A4733F
:10AC40000122226297E74FF4007203FB0763C4F806
:10AC5000002240F202229A604FF48273F0E76B68A0
:10AC6000EA68C4F83425C4F838354FF48053C4F882
:10AC70000032342303FB076340F202229A6001236F
:10AC8000236200214FF4827376E74FF48273082128
:10AC9000072272E718F0040F1CBF4FF400738360A3
:10ACA000342303FB0766B368C4F80433CBE6D4F857
:10ACB000241100293FF471AF4FF492712046FFF741
:10ACC00081FC25624FF48273656165E7834103006F
:10ACD00028AD002002029C01000204006DDF7047D5
:10ACE00079DF70477DDF704764DF70472DE9F74FEC
:10ACF0000C9CBDF834B02788002580468A469146D2
:10AD00002E46B8F80020B2420BDC35B12288013A59
:10AD1000D21B92B2FF2A39D8DA55002003B0BDE821
:10AD2000F08FD8F8042052F82600019000220DF18F
:10AD3000030101A8FFF7D8FF0028EFD19DF80320F9
:10AD40004A4521D12288002D14BF0020022002EBA9
:10AD500009010144594519DC3DB9013292B2228002
:10AD600003F802A022880132228022880DF103011B
:10AD70001A4401A8FFF7B8FF0028CFD121889DF819
:10AD800003200A44228001250136BAE70C20C5E7DA
:10AD90002DE9F341089CBDF824501746CDE9004544
:10ADA00002220646FFF7A2FF48B910223946304674
:10ADB000CDE9084502B0BDE8F041FFF797BF02B00A
:10ADC000BDE8F0812DE9F04F00231688138090F83C
:10ADD0002D3085B007460D4614465BB3082E01D8CA
:10ADE0000C2005E102A8FFF779FF002840F0008160
:10ADF00013880822CA54238801339BB21B22238064
:10AE0000CA54238804AA01339BB252F8070D238049
:10AE10001944E85093888B8023889DF808200633D6
:10AE20009BB212F0FE0218BF01222380EA5423884D
:10AE300001332380BB78FBB123880433B342CFD8DE
:10AE400002A8FFF74DFF002840F0D280238803229C
:10AE5000EA54238801339BB219222380EA542388C1
:10AE6000BDF8082001339BB2E9182380EA54120A86
:10AE70004A70238802332380FA789AB12388D91C38
:10AE8000B142ADD80221E954238801339BB201219C
:10AE90002380E95423880B449BB22380EA542388FF
:10AEA0000B4423807A68AAB12388D91CB14297D871
:10AEB000022192F90020E954238801339BB20A2130
:10AEC0002380E954238801339BB22380EA542388EA
:10AED000013323803B89002B7ED13B8A53B1CDE9DE
:10AEE00000462B460722032107F11000FFF750FF11
:10AEF00000287DD13B8B53B1CDE900462B4615226E
:10AF0000142107F11800FFF743FF002870D13A6AB7
:10AF1000002A70D1D7F82480B8F1000F30D0B8F8EB
:10AF200004302188981C8A1C0244B2423FF658AF74
:10AF3000FE283FF655AF03336B54238801339BB291
:10AF4000FF222380EA54238801339BB22380B8F880
:10AF50000020EA54E918120A4A702088023080B2B0
:10AF60002080B8F804205AB1D8F8081000294CD035
:10AF7000284401F0DDFB2388B8F804201344238023
:10AF800097F82C30002B7BD1387888B33B88012B85
:10AF90003BD021888A1CB2423FF622AF012805D15E
:10AFA0007B7802330B449E42FFF41AAF023E761ABE
:10AFB00004A9B6B221F8086DA818FFF793FEB8B936
:10AFC0003B78022B40F09F80BDF80830B34240F23E
:10AFD000B680ADF808609FE0CDE900462B4606221A
:10AFE000022107F10800FFF7D3FE00283FF475AFF8
:10AFF00005B0BDE8F08FB4F800C00CF10603B34211
:10B000003FF6EEAE1188052901D80720F0E76FF46E
:10B01000486E01EB0E039BB24FF27D3E7345F4D9AF
:10B020005388052BF1D96FF44860181880B2704529
:10B03000EBD94FF6FF70814203D0834201D0994291
:10B04000E3D8052305F80C30238801339BB2122185
:10B050002380E954238801339BB223801188E9546B
:10B06000E818090A4170238802339BB22380528872
:10B07000EA54E918120A4A7023880233238049E708
:10B08000BB6A002BC1D04FF000094FF00C0A4FF003
:10B09000160B97F82C305FFA89F293427FF674AF63
:10B0A000B96A0AFB02F201EB0208B8F80430981CF6
:10B0B000FE283FF695AE208803332B5423880133B6
:10B0C0009BB2238005F803B0238801339BB2238011
:10B0D0008A5AEA54E918120A4A702088023080B26B
:10B0E0002080B8F804205AB1D8F8081000298CD074
:10B0F000284401F01DFB2388B8F804201344238062
:10B1000009F10109C5E7012B7FF463AF7B789E420B
:10B11000FFF45FAFADF808300821BDF80830FE2B12
:10B120003FF65EAE22880133AB542288013292B2E0
:10B130002280A954228813442380002058E7092143
:10B14000EBE770B5C0B14AB116880024B44203D30E
:10B1500005196D789D4208D0A14201D800200BE06E
:10B16000055D01352C44A4B2F0E7A142F6D9A31C39
:10B170001380005D013880B270BD37B502AC00238A
:10B1800024F8023D134622460546FFF7DAFF10B1C8
:10B19000BDF80600284403B030BD72DF704773DF8E
:10B1A000704738B5012204460D46B0F89810D0F823
:10B1B0009400FFF7E2FF00B1057004F13C0204F1D6
:10B1C000940104F15400BDE83840FFF7E6BF80F871
:10B1D00030107047F8B504460F46002966D00028A5
:10B1E00064D091F87A301BB191F89830002B5FD180
:10B1F000D7F8A030042B5BD0D7F89C30042B57D065
:10B2000007F178060FCE4FF0000C251D84F802C020
:10B210000FC50FCE0FC596E8070085E8070084F834
:10B2200030C0D7F8A4306363D7F8A830A36304F123
:10B2300094024FF6FF73C4F8AAC0A4F8A830C4F86B
:10B24000A420C4F8ADC022780AB984F8543022464C
:10B2500004F155011F25C4F89410384622F8985F70
:10B26000FFF7B0FD08BB224604F17401C4F89C103E
:10B2700007F13C0022F8A05FFFF7A4FDA8B9A2697E
:10B28000A4F8482001236269206484F850006264B5
:10B29000014684F8513084F83C3004F13C0204F15A
:10B2A0005400FFF77AFF00B92370F8BD0E20FCE7C9
:10B2B0000720FAE7F8B5077804460D46002F00F09E
:10B2C0000D81A1700020FCF789FF18B10123637084
:10B2D0000020F8BD04F1AA06C4F8AA00C6F80300CD
:10B2E000E38813B1A378012B04D0E3794BB1A378A1
:10B2F000022B06D1636BA3B1012284F8B120082090
:10B300009847334604F1B00113F8012F12B999425E
:10B31000FAD117466B1E032B53D8DFE803F0050B59
:10B320000F1284F8B130ECE7A3791BB194F8243004
:10B3300003B95FB9E3790BB1002F44D1237A002B15
:10B3400043D1637A002B0CBF00250425636BA570E5
:10B35000002B3CD0033D012D39D86279002A36D02C
:10B3600094F8B220002A32D184F8B420012284F863
:10B37000B3200720984704F13C05182200212846F5
:10B3800001F070FAE36A94F824200121581E8842E3
:10B3900088BF0B4684F83C1084F8513032B18842A3
:10B3A00096BFA36A84F8521084F85230A178002323
:10B3B00084F8503004291BD8DFE801F07A0D2538D5
:10B3C0005C000025C2E70225C0E70325BEE7002395
:10B3D00084F8B330CFE7C4F8A430C4E91063022383
:10B3E000012284F83C30802384F83120A4F84830CE
:10B3F000A378002B5FD1636B002B3FF469AF94F807
:10B400003100984764E7022384F8313062B10723A2
:10B4100084F83C302369A4F848300023C4F8A430F1
:10B42000E36826646364E3E70323F1E76369636425
:10B43000A369A4F8483012B1062384F83C3063793C
:10B44000B3B194F8B2309BB994F8B43083B102230D
:10B4500084F8503004212046FFF7A3FE0028C7D10E
:10B46000052384F8313004F19403C4F8A430BFE715
:10B470000323F6E7E3696364236AA4F8483012B152
:10B48000062384F83C30637983B194F8B2306BB909
:10B4900094F8B43053B1022384F85030042120468C
:10B4A000FFF77FFE0028A3D10623DAE70423D8E7BD
:10B4B00084F831309CE72A46D4F8A41004F15400F3
:10B4C000FFF76BFE00287FF404AF94F8301094F877
:10B4D0005400FFF764FE00288DD0FAE60820F8E655
:10B4E0000388112B10B50C460AD0262B1FD0102B29
:10B4F00005D1C37B012B02D18388A1F8A83010BDF0
:10B500000022838881F8B220B1F8A8209A42F6D1AF
:10B510000B79002BF3D101212046FFF7CBFE002849
:10B52000EDD0A36B002BEAD0BDE810401847037A9A
:10B53000013B012BE3D889780523013191FBF3F31B
:10B5400003EB8303C91AC9B2E6E70238012810B534
:10B550000C460DD84B785BB100234B7020468978A0
:10B56000FFF7A8FE20B1A36B13B1BDE81040184748
:10B5700010BD75DF704776DF70477ADF70477BDF7D
:10B5800070470000034B1A8882420CBF1846002007
:10B59000704700BF78AD0020024B9B6903B118478C
:10B5A000704700BF5CAD002037B585B22846FFF775
:10B5B000E9FF034670B1164C017A227B91420BD20F
:10B5C00000F10A012846FFF7D4FFE8B1112801D0A5
:10B5D000FFF7E2FF03B030BD237C0022027243B1CB
:10B5E0003B212846FFF7C7FF30F0080301D0FFF7E3
:10B5F000D3FF6369002BEDD000228DF80420ADF855
:10B60000065001A89847E5E71A7A01321A72E1E775
:10B610005CAD002013B50B46497A0F4C024669B960
:10B62000D4E901101C7A002C18BF01465868FBF7BA
:10B63000E3FF08B1FFF7B0FF02B010BD002119729F
:10B640006369002BF8D00121ADF806008DF80410D5
:10B6500001A89847F0E700BF5CAD00208388B3F5F0
:10B66000FA7F28BF6FF4F97230B528BF9C1805889F
:10B670004A8838BF002495420CD84088904209D3AC
:10B680008A88A24206D303F2F310904234BF00200E
:10B69000012030BD0020FCE70388112B70B5014666
:10B6A00048D002D8102B1ED070BD122B52D0502B78
:10B6B000FAD12F4BC288DB899A42F5D1038A022B3B
:10B6C000F2D186883046FFF75DFF05460028EBD0B3
:10B6D00001F1120000F08AF830BB6868FBF7D0FF78
:10B6E0000028E1D009E0C37B012BDDD14FF6FF70CC
:10B6F000FFF748FF054620B90420BDE87040FFF77A
:10B700004BBF1C4A8E880680002303721368C5F85D
:10B710000A300A30536843601031FFF79FFF144B23
:10B720006872DB89002BBFD129463046BDE87040E6
:10B73000FFF770BF8088FFF725FF04460028B3D0CD
:10B740004068FBF79DFF08B1FFF726FF4FF6FF7338
:10B750002380A9E786883046FFF714FF05460028B6
:10B76000A2D008310A30FFF779FF6872DCE700BF2A
:10B770005CAD00208CAD0020F8B5064650B3054600
:10B780000FCD154F3C460FC495E8070084E807002D
:10B790003068124B3B60B8B1FFF7EFFEC8B93168B3
:10B7A0000A681A604A685A600D480E4A4FF6FF73DD
:10B7B00003800D4B40F8043F0021FBF70BFF0028EE
:10B7C00014BF0320002004E01846FFF7D8FE00282D
:10B7D000EAD0F8BD0E20FCE75CAD00208CAD002067
:10B7E00078AD0020A9B5020094AD0020007800F0EB
:10B7F0000100704790DF7047A5DF7047B5DF7047E5
:10B80000F0B585B00023ADF80810ADF80A106A460F
:10B8100002A9074603930093ADF80430FFF7EAFF4F
:10B82000064618B3134C2588FDF7D6FB2D0445F0CA
:10B83000010503463A4610492846FDF765F8BDF86C
:10B840000020BDF8023002B933B120880B49000452
:10B8500040F00100FDF758F8BDF8042032B120880F
:10B860000749000440F00100FDF744F8304605B0F8
:10B87000F0BD00BF08A30020DE4103002842030002
:10B880006742030088B14FF0F7130360FB23037195
:10B89000F723C3801723038141F6FB3200230161A4
:10B8A0008372C3728281184670470E207047000071
:10B8B00037B5034680880C46A0B91A88232A00F0C1
:10B8C000AD8011D8102A25D0112A53D0A37A4BB1BC
:10B8D000E1880020FFF790FF002840F0A5800123B9
:10B8E000A072E37203B030BD3A2A4DD0552A67D01A
:10B8F000242AEBD11A7A0B694A73002BE6D04DF655
:10B900007A21ADF80400ADF80010ADF802008DF812
:10B9100004207FE0DB7B0A790A73012B13D0022B12
:10B9200014D0E18823898B4205D20020FFF764FF01
:10B9300070B90123E372217B637B8B42C6D2002066
:10B94000FFF75EFFC2E70B88E380EAE74B88FBE77F
:10B95000112802D10123A372EDE73B4B1D88FDF7AF
:10B960003BFB2D0445F00105024638492846FCF70B
:10B97000C1FFE0E7F723CB8017230B8141F6FB33B0
:10B980008872C8728B81A1E75B89CA88934228BFFD
:10B990001346172B0A6938BF17230B8162B1C97A86
:10B9A00051B140F67721ADF80010ADF80200ADF8C6
:10B9B00004306946204690470023E372A37285E76E
:10B9C000DB88C988A072172B38BF17238B4228BF8A
:10B9D0000B462381FFF712FF58B11B4B1D88FDF763
:10B9E000FBFA2D0445F00105024619492846FCF7EB
:10B9F00081FFE27A002A7FF469AF2369002B3FF4CC
:10BA000065AF40F67721ADF802202289ADF800102D
:10BA1000ADF8042069462046984757E7197A237BFA
:10BA2000994228BF19468BE711283FF45BAF064BBC
:10BA30001C88FDF7D1FA240444F0010402460349AE
:10BA40002046FCF757FF4DE708A30020BD42030046
:10BA5000EE42030010DF704713B5044609496846FB
:10BA6000FDF766FA019808B902B010BDD0E90031BF
:10BA70002046984718B16846FDF774FAF2E711209E
:10BA8000F2E700BF3043030013B504460749684698
:10BA9000FDF74EFA019B0BB902B010BD2046D3E969
:10BAA000002190476846FDF75DFAF3E7484303003D
:10BAB0000C4A92F816335B09012B08D9042B06D0E7
:10BAC000094B996849B94FF4800313607047074ADE
:10BAD000A12142F20200FBF746BB1A6842F4800241
